{
    "contractName": "Loop",
    "abi": [
        {
            "inputs": [
                {
                    "internalType": "uint256",
                    "name": "x",
                    "type": "uint256"
                }
            ],
            "name": "loop",
            "outputs": [],
            "stateMutability": "pure",
            "type": "function"
        }
    ],
    "bytecode": "608060405234801561000f575f80fd5b5060ef8061001c5f395ff3fe6080604052348015600e575f80fd5b50600436106026575f3560e01c80630b7d796e14602a575b5f80fd5b603960353660046080565b603b565b005b5f5b8181101560625760038114605357600581146062575b80605b816096565b915050603d565b505f5b600a811015607c57806075816096565b9150506065565b5050565b5f60208284031215608f575f80fd5b5035919050565b5f6001820160b257634e487b7160e01b5f52601160045260245ffd5b506001019056fea2646970667358221220fabbb26463fca4c3b400afd3fc4e458fec6f2b30d1e50070a1f4d9002a0ca87964736f6c63430008140033",
    "sourcePath": "c:/Users/Sears/Desktop/blockchain_learn/truffle-example/contracts/8_Loop.sol",
    "compiler": {
        "name": "solc",
        "version": "0.8.20+commit.a1b79de6"
    },
    "functionHashes": {
        "loop(uint256)": "0b7d796e"
    },
    "gasEstimates": {
        "creation": {
            "codeDepositCost": "47800",
            "executionCost": "97",
            "totalCost": "47897"
        },
        "external": {
            "loop(uint256)": "infinite"
        }
    }
}