{
  "contractName": "Array",
  "abi": [
    {
      "inputs": [
        {
          "internalType": "uint256",
          "name": "",
          "type": "uint256"
        }
      ],
      "name": "arr",
      "outputs": [
        {
          "internalType": "uint256",
          "name": "",
          "type": "uint256"
        }
      ],
      "stateMutability": "view",
      "type": "function"
    },
    {
      "inputs": [
        {
          "internalType": "uint256",
          "name": "",
          "type": "uint256"
        }
      ],
      "name": "arr2",
      "outputs": [
        {
          "internalType": "uint256",
          "name": "",
          "type": "uint256"
        }
      ],
      "stateMutability": "view",
      "type": "function"
    },
    {
      "inputs": [
        {
          "internalType": "uint256",
          "name": "",
          "type": "uint256"
        }
      ],
      "name": "myFixedSizeArr",
      "outputs": [
        {
          "internalType": "uint256",
          "name": "",
          "type": "uint256"
        }
      ],
      "stateMutability": "view",
      "type": "function"
    },
    {
      "inputs": [
        {
          "internalType": "uint256",
          "name": "i",
          "type": "uint256"
        }
      ],
      "name": "get",
      "outputs": [
        {
          "internalType": "uint256",
          "name": "",
          "type": "uint256"
        }
      ],
      "stateMutability": "view",
      "type": "function"
    },
    {
      "inputs": [],
      "name": "getArr",
      "outputs": [
        {
          "internalType": "uint256[]",
          "name": "",
          "type": "uint256[]"
        }
      ],
      "stateMutability": "view",
      "type": "function"
    },
    {
      "inputs": [
        {
          "internalType": "uint256",
          "name": "i",
          "type": "uint256"
        }
      ],
      "name": "push",
      "outputs": [],
      "stateMutability": "nonpayable",
      "type": "function"
    },
    {
      "inputs": [],
      "name": "pop",
      "outputs": [],
      "stateMutability": "nonpayable",
      "type": "function"
    },
    {
      "inputs": [],
      "name": "getLength",
      "outputs": [
        {
          "internalType": "uint256",
          "name": "",
          "type": "uint256"
        }
      ],
      "stateMutability": "view",
      "type": "function"
    },
    {
      "inputs": [
        {
          "internalType": "uint256",
          "name": "i",
          "type": "uint256"
        }
      ],
      "name": "remove",
      "outputs": [],
      "stateMutability": "nonpayable",
      "type": "function"
    },
    {
      "inputs": [],
      "name": "examples",
      "outputs": [],
      "stateMutability": "pure",
      "type": "function"
    },
    {
      "inputs": [
        {
          "internalType": "uint256",
          "name": "_index",
          "type": "uint256"
        }
      ],
      "name": "removeElement",
      "outputs": [],
      "stateMutability": "nonpayable",
      "type": "function"
    }
  ],
  "bytecode": "0x60806040526040518060600160405280600160ff168152602001600260ff168152602001600360ff16815250600190600361003b92919061004d565b50348015610047575f80fd5b506100b8565b828054828255905f5260205f2090810192821561008c579160200282015b8281111561008b578251829060ff1690559160200191906001019061006b565b5b509050610099919061009d565b5090565b5b808211156100b4575f815f90555060010161009e565b5090565b610783806100c55f395ff3fe608060405234801561000f575f80fd5b50600436106100a7575f3560e01c8063959ac4841161006f578063959ac484146101615780639fc37abf1461017d578063a4ece52c14610199578063be1c766b146101a3578063edf0099b146101c1578063fb8cbced146101f1576100a7565b8063335d00c2146100ab57806338a067ce146100b55780634cc82215146100e557806371e5ee5f146101015780639507d39a14610131575b5f80fd5b6100b361020f565b005b6100cf60048036038101906100ca91906104c2565b61025f565b6040516100dc91906104fc565b60405180910390f35b6100ff60048036038101906100fa91906104c2565b610278565b005b61011b600480360381019061011691906104c2565b610299565b60405161012891906104fc565b60405180910390f35b61014b600480360381019061014691906104c2565b6102b8565b60405161015891906104fc565b60405180910390f35b61017b600480360381019061017691906104c2565b6102dc565b005b610197600480360381019061019291906104c2565b610304565b005b6101a16103e5565b005b6101ab61040b565b6040516101b891906104fc565b60405180910390f35b6101db60048036038101906101d691906104c2565b610416565b6040516101e891906104fc565b60405180910390f35b6101f9610436565b60405161020691906105cc565b60405180910390f35b5f600767ffffffffffffffff81111561022b5761022a6105ec565b5b6040519080825280602002602001820160405280156102595781602001602082028036833780820191505090505b50905050565b600281600a811061026e575f80fd5b015f915090505481565b5f818154811061028b5761028a610619565b5b905f5260205f20015f905550565b5f81815481106102a7575f80fd5b905f5260205f20015f915090505481565b5f8082815481106102cc576102cb610619565b5b905f5260205f2001549050919050565b5f81908060018154018082558091505060019003905f5260205f20015f909190919091505550565b5f805490508110156103e25760015f8054905003610345575f80548061032d5761032c610646565b5b600190038181905f5260205f20015f905590556103e2565b5f8190505b60015f8054905061035b91906106a0565b8110156103bc575f60018261037091906106d3565b8154811061038157610380610619565b5b905f5260205f2001545f828154811061039d5761039c610619565b5b905f5260205f20018190555080806103b490610706565b91505061034a565b505f8054806103ce576103cd610646565b5b600190038181905f5260205f20015f905590555b50565b5f8054806103f6576103f5610646565b5b600190038181905f5260205f20015f90559055565b5f8080549050905090565b60018181548110610425575f80fd5b905f5260205f20015f915090505481565b60605f80548060200260200160405190810160405280929190818152602001828054801561048157602002820191905f5260205f20905b81548152602001906001019080831161046d575b5050505050905090565b5f80fd5b5f819050919050565b6104a18161048f565b81146104ab575f80fd5b50565b5f813590506104bc81610498565b92915050565b5f602082840312156104d7576104d661048b565b5b5f6104e4848285016104ae565b91505092915050565b6104f68161048f565b82525050565b5f60208201905061050f5f8301846104ed565b92915050565b5f81519050919050565b5f82825260208201905092915050565b5f819050602082019050919050565b6105478161048f565b82525050565b5f610558838361053e565b60208301905092915050565b5f602082019050919050565b5f61057a82610515565b610584818561051f565b935061058f8361052f565b805f5b838110156105bf5781516105a6888261054d565b97506105b183610564565b925050600181019050610592565b5085935050505092915050565b5f6020820190508181035f8301526105e48184610570565b905092915050565b7f4e487b71000000000000000000000000000000000000000000000000000000005f52604160045260245ffd5b7f4e487b71000000000000000000000000000000000000000000000000000000005f52603260045260245ffd5b7f4e487b71000000000000000000000000000000000000000000000000000000005f52603160045260245ffd5b7f4e487b71000000000000000000000000000000000000000000000000000000005f52601160045260245ffd5b5f6106aa8261048f565b91506106b58361048f565b92508282039050818111156106cd576106cc610673565b5b92915050565b5f6106dd8261048f565b91506106e88361048f565b9250828201905080821115610700576106ff610673565b5b92915050565b5f6107108261048f565b91507fffffffffffffffffffffffffffffffffffffffffffffffffffffffffffffffff820361074257610741610673565b5b60018201905091905056fea2646970667358221220c154c77eafb263d9772bf84402837cb2995bf58748a74a6d1ed45c7c30aeed2f64736f6c63430008140033",
  "immutableReferences": {},
  "source": "// SPDX-License-Identifier: MIT \r\n\r\ncontract Array {\r\n  // \r\n  uint[] public arr;\r\n  // \r\n  uint[] public arr2 = [1,2,3];\r\n  // \r\n  uint[10] public myFixedSizeArr;\r\n\r\n  function get(uint i) public view returns(uint) {\r\n    return arr[i];\r\n  }\r\n\r\n  //Solidity \r\n  //\r\n  //\r\n  function getArr() public view returns(uint[] memory){\r\n    return arr;\r\n  }\r\n\r\n  function push(uint i) public {\r\n    // push\r\n    arr.push(i);\r\n  }\r\n\r\n  function pop() public {\r\n    // \r\n    arr.pop();\r\n  }\r\n\r\n  function getLength() public view returns(uint) {\r\n    return arr.length;\r\n  }\r\n\r\n  function remove(uint i) public {\r\n    //delete\r\n    //\r\n    // 0\r\n    delete arr[i];\r\n  }\r\n\r\n  function examples() external pure {\r\n    // \r\n    uint[] memory a = new uint[](7);\r\n    a;\r\n  }\r\n\r\n  // \r\n  function removeElement(uint _index) public {\r\n    // \r\n    if(_index >= arr.length) return;\r\n    if(arr.length == 1) {\r\n      arr.pop();\r\n      return;\r\n    }\r\n\r\n    for (uint i = _index; i < arr.length - 1;i++) {\r\n      arr[i] = arr[i + 1];\r\n    }\r\n    arr.pop();\r\n  }\r\n}",
  "sourcePath": "C:\\Users\\Sears\\Desktop\\blockchain_learn\\truffle-example\\contracts\\10_Array.sol",
  "compiler": {
    "name": "solc",
    "version": "0.8.20+commit.a1b79de6.Emscripten.clang"
  },
  "schemaVersion": "3.4.15",
  "updatedAt": "2023-11-25T14:50:35.763Z",
  "devdoc": {
    "kind": "dev",
    "methods": {},
    "version": 1
  },
  "userdoc": {
    "kind": "user",
    "methods": {},
    "version": 1
  }
}