{
  "contractName": "Constant",
  "abi": [
    {
      "inputs": [],
      "name": "ADDR",
      "outputs": [
        {
          "internalType": "address",
          "name": "",
          "type": "address"
        }
      ],
      "stateMutability": "view",
      "type": "function"
    },
    {
      "inputs": [],
      "name": "NUM",
      "outputs": [
        {
          "internalType": "uint256",
          "name": "",
          "type": "uint256"
        }
      ],
      "stateMutability": "view",
      "type": "function"
    }
  ],
  "bytecode": "0x608060405234801561000f575f80fd5b506101508061001d5f395ff3fe608060405234801561000f575f80fd5b5060043610610034575f3560e01c8063897cb91e14610038578063b4eb5ede14610056575b5f80fd5b610040610074565b60405161004d91906100a9565b60405180910390f35b61005e610079565b60405161006b9190610101565b60405180910390f35b600181565b735b38da6a701c568545dcfcb03fcb875f56beddc481565b5f819050919050565b6100a381610091565b82525050565b5f6020820190506100bc5f83018461009a565b92915050565b5f73ffffffffffffffffffffffffffffffffffffffff82169050919050565b5f6100eb826100c2565b9050919050565b6100fb816100e1565b82525050565b5f6020820190506101145f8301846100f2565b9291505056fea26469706673582212208e0c5c7df37546250d0842aa48bac3537fad59af75b6e9502c04179801bd3c1e64736f6c63430008140033",
  "immutableReferences": {},
  "source": "// SPDX-License-Identifier: MIT \r\npragma solidity ^0.8.20;\r\n\r\ncontract Constant {\r\n  // 通过constant关键字声明常量\r\n  uint public constant NUM = 1;\r\n  address public constant ADDR = 0x5B38Da6a701c568545dCfcB03FcB875f56beddC4;\r\n}",
  "sourcePath": "C:\\Users\\Sears\\Desktop\\blockchain_learn\\truffle-example\\contracts\\3_Constant.sol",
  "compiler": {
    "name": "solc",
    "version": "0.8.20+commit.a1b79de6.Emscripten.clang"
  },
  "schemaVersion": "3.4.15",
  "updatedAt": "2023-11-26T08:09:23.389Z",
  "devdoc": {
    "kind": "dev",
    "methods": {},
    "version": 1
  },
  "userdoc": {
    "kind": "user",
    "methods": {},
    "version": 1
  }
}