{
  "contractName": "E",
  "abi": [
    {
      "inputs": [],
      "stateMutability": "nonpayable",
      "type": "constructor"
    },
    {
      "inputs": [],
      "name": "name",
      "outputs": [
        {
          "internalType": "string",
          "name": "",
          "type": "string"
        }
      ],
      "stateMutability": "view",
      "type": "function"
    },
    {
      "inputs": [],
      "name": "text",
      "outputs": [
        {
          "internalType": "string",
          "name": "",
          "type": "string"
        }
      ],
      "stateMutability": "view",
      "type": "function"
    }
  ],
  "bytecode": "0x608060405234801561000f575f80fd5b506040518060400160405280600c81526020017f59207761732063616c6c656400000000000000000000000000000000000000008152506040518060400160405280600c81526020017f58207761732063616c6c65640000000000000000000000000000000000000000815250805f908161008a91906102dc565b5050806001908161009b91906102dc565b50506103ab565b5f81519050919050565b7f4e487b71000000000000000000000000000000000000000000000000000000005f52604160045260245ffd5b7f4e487b71000000000000000000000000000000000000000000000000000000005f52602260045260245ffd5b5f600282049050600182168061011d57607f821691505b6020821081036101305761012f6100d9565b5b50919050565b5f819050815f5260205f209050919050565b5f6020601f8301049050919050565b5f82821b905092915050565b5f600883026101927fffffffffffffffffffffffffffffffffffffffffffffffffffffffffffffffff82610157565b61019c8683610157565b95508019841693508086168417925050509392505050565b5f819050919050565b5f819050919050565b5f6101e06101db6101d6846101b4565b6101bd565b6101b4565b9050919050565b5f819050919050565b6101f9836101c6565b61020d610205826101e7565b848454610163565b825550505050565b5f90565b610221610215565b61022c8184846101f0565b505050565b5b8181101561024f576102445f82610219565b600181019050610232565b5050565b601f8211156102945761026581610136565b61026e84610148565b8101602085101561027d578190505b61029161028985610148565b830182610231565b50505b505050565b5f82821c905092915050565b5f6102b45f1984600802610299565b1980831691505092915050565b5f6102cc83836102a5565b9150826002028217905092915050565b6102e5826100a2565b67ffffffffffffffff8111156102fe576102fd6100ac565b5b6103088254610106565b610313828285610253565b5f60209050601f831160018114610344575f8415610332578287015190505b61033c85826102c1565b8655506103a3565b601f19841661035286610136565b5f5b8281101561037957848901518255600182019150602085019450602081019050610354565b868310156103965784890151610392601f8916826102a5565b8355505b6001600288020188555050505b505050505050565b6102c8806103b85f395ff3fe608060405234801561000f575f80fd5b5060043610610034575f3560e01c806306fdde03146100385780631f1bd69214610056575b5f80fd5b610040610074565b60405161004d9190610215565b60405180910390f35b61005e6100ff565b60405161006b9190610215565b60405180910390f35b5f805461008090610262565b80601f01602080910402602001604051908101604052809291908181526020018280546100ac90610262565b80156100f75780601f106100ce576101008083540402835291602001916100f7565b820191905f5260205f20905b8154815290600101906020018083116100da57829003601f168201915b505050505081565b6001805461010c90610262565b80601f016020809104026020016040519081016040528092919081815260200182805461013890610262565b80156101835780601f1061015a57610100808354040283529160200191610183565b820191905f5260205f20905b81548152906001019060200180831161016657829003601f168201915b505050505081565b5f81519050919050565b5f82825260208201905092915050565b5f5b838110156101c25780820151818401526020810190506101a7565b5f8484015250505050565b5f601f19601f8301169050919050565b5f6101e78261018b565b6101f18185610195565b93506102018185602086016101a5565b61020a816101cd565b840191505092915050565b5f6020820190508181035f83015261022d81846101dd565b905092915050565b7f4e487b71000000000000000000000000000000000000000000000000000000005f52602260045260245ffd5b5f600282049050600182168061027957607f821691505b60208210810361028c5761028b610235565b5b5091905056fea2646970667358221220d1998a41158c5515b069397606e8de217ae9b5434cc928588c485d774011f7ea64736f6c63430008140033",
  "immutableReferences": {},
  "source": "// SPDX-License-Identifier: MIT\r\npragma solidity ^0.8.20;\r\n\r\n\r\n/**\r\n * constructor \r\n */\r\n\r\ncontract X {\r\n  string public name;\r\n  constructor(string memory _name) {\r\n    name = _name;\r\n  }\r\n}\r\n\r\ncontract Y {\r\n  string public text;\r\n  constructor(string memory _text) {\r\n    text = _text;\r\n  }\r\n}\r\n\r\n// isjavaextends\r\ncontract B is X(\"Input to X\"),Y(\"Input to Y\") {}\r\n\r\n// constructorC\r\ncontract C is X,Y {\r\n  constructor(string memory _name,string memory _text) X(_name) Y(_text) {}\r\n}\r\n\r\n//  \r\n// \r\n// \r\n// 1. X\r\n// 2. Y\r\n// 3. D\r\ncontract D is X,Y {\r\n  constructor() X(\"X was called\") Y(\"Y was called\") {\r\n  }\r\n}\r\n// \r\n// 1. X\r\n// 2. Y\r\n// 3. D\r\n// XY\r\ncontract E is X, Y {\r\n    constructor() Y(\"Y was called\") X(\"X was called\") {}\r\n}\r\n\r\n",
  "sourcePath": "C:\\Users\\Sears\\Desktop\\blockchain_learn\\truffle-example\\contracts\\17_Constructor.sol",
  "compiler": {
    "name": "solc",
    "version": "0.8.20+commit.a1b79de6.Emscripten.clang"
  },
  "schemaVersion": "3.4.15",
  "updatedAt": "2023-11-26T08:09:23.363Z",
  "devdoc": {
    "kind": "dev",
    "methods": {},
    "version": 1
  },
  "userdoc": {
    "kind": "user",
    "methods": {},
    "version": 1
  }
}