{
  "contractName": "Enum",
  "abi": [
    {
      "inputs": [],
      "name": "status",
      "outputs": [
        {
          "internalType": "enum Status",
          "name": "",
          "type": "uint8"
        }
      ],
      "stateMutability": "view",
      "type": "function"
    },
    {
      "inputs": [],
      "name": "get",
      "outputs": [
        {
          "internalType": "enum Status",
          "name": "",
          "type": "uint8"
        }
      ],
      "stateMutability": "view",
      "type": "function"
    },
    {
      "inputs": [
        {
          "internalType": "enum Status",
          "name": "_status",
          "type": "uint8"
        }
      ],
      "name": "set",
      "outputs": [],
      "stateMutability": "nonpayable",
      "type": "function"
    },
    {
      "inputs": [],
      "name": "cancel",
      "outputs": [],
      "stateMutability": "nonpayable",
      "type": "function"
    },
    {
      "inputs": [],
      "name": "reset",
      "outputs": [],
      "stateMutability": "nonpayable",
      "type": "function"
    }
  ],
  "bytecode": "0x608060405234801561000f575f80fd5b506102658061001d5f395ff3fe608060405234801561000f575f80fd5b5060043610610055575f3560e01c8063200d2ed21461005957806324b8ba5f146100775780636d4ce63c14610093578063d826f88f146100b1578063ea8a1af0146100bb575b5f80fd5b6100616100c5565b60405161006e91906101c4565b60405180910390f35b610091600480360381019061008c9190610204565b6100d5565b005b61009b610100565b6040516100a891906101c4565b60405180910390f35b6100b9610114565b005b6100c3610126565b005b5f8054906101000a900460ff1681565b805f806101000a81548160ff021916908360048111156100f8576100f7610151565b5b021790555050565b5f805f9054906101000a900460ff16905090565b5f806101000a81549060ff0219169055565b60045f806101000a81548160ff0219169083600481111561014a57610149610151565b5b0217905550565b7f4e487b71000000000000000000000000000000000000000000000000000000005f52602160045260245ffd5b6005811061018f5761018e610151565b5b50565b5f81905061019f8261017e565b919050565b5f6101ae82610192565b9050919050565b6101be816101a4565b82525050565b5f6020820190506101d75f8301846101b5565b92915050565b5f80fd5b600581106101ed575f80fd5b50565b5f813590506101fe816101e1565b92915050565b5f60208284031215610219576102186101dd565b5b5f610226848285016101f0565b9150509291505056fea26469706673582212207eb23df08c0184802b2fc4b5f766e18f9593e74e4f160fdb509d8c2900cfe2f264736f6c63430008140033",
  "immutableReferences": {},
  "source": "// SPDX-License-Identifier: MIT\r\npragma solidity ^0.8.20;\r\n\r\n/**\r\n * 枚举\r\n * Solidity 支持枚举，它们对于建模选择和跟踪状态很有用。\r\n * 枚举可以在合同之外声明。并且可以从其他合约中导入enum\r\n*/\r\n\r\nimport './11_2_Enum.sol';\r\n\r\ncontract Enum {\r\n  // 代表运输状态的枚举\r\n  // 如果从其他合约中导入了Status enum，则以下声明将命名冲突\r\n  // enum Status {\r\n  //   Pending,\r\n  //   Shipped,\r\n  //   Accepted,\r\n  //   Rejected,\r\n  //   Canceled\r\n  // }\r\n\r\n  //默认值是列出的第一个元素\r\n  //类型的定义，在本例中为“Pending”\r\n  Status public status;\r\n\r\n  //返回 uint\r\n  //待处理 -0\r\n  //已发货 -1\r\n  //已接受 -2\r\n  //拒绝 -3\r\n  //取消 -4\r\n\r\n  function get () public view returns(Status) {\r\n    return status;\r\n  }\r\n  function set(Status _status) public {\r\n    status = _status;\r\n  }\r\n  function cancel() public {\r\n    status = Status.Canceled;\r\n  }\r\n  function reset() public {\r\n    delete status;\r\n  }\r\n\r\n}",
  "sourcePath": "C:\\Users\\Sears\\Desktop\\blockchain_learn\\truffle-example\\contracts\\11_Enum.sol",
  "compiler": {
    "name": "solc",
    "version": "0.8.20+commit.a1b79de6.Emscripten.clang"
  },
  "schemaVersion": "3.4.15",
  "updatedAt": "2023-11-26T08:09:23.331Z",
  "devdoc": {
    "kind": "dev",
    "methods": {},
    "version": 1
  },
  "userdoc": {
    "kind": "user",
    "methods": {},
    "version": 1
  }
}