{
  "contractName": "Error",
  "abi": [
    {
      "inputs": [
        {
          "components": [
            {
              "components": [
                {
                  "internalType": "uint256",
                  "name": "balance",
                  "type": "uint256"
                },
                {
                  "internalType": "uint256",
                  "name": "withdrawAmount",
                  "type": "uint256"
                }
              ],
              "internalType": "struct Error.ErrorData",
              "name": "data",
              "type": "tuple"
            },
            {
              "internalType": "string",
              "name": "info",
              "type": "string"
            }
          ],
          "internalType": "struct Error.ErrorResponse",
          "name": "errorResponse",
          "type": "tuple"
        }
      ],
      "name": "InsufficientBalance",
      "type": "error"
    },
    {
      "inputs": [],
      "name": "num",
      "outputs": [
        {
          "internalType": "uint256",
          "name": "",
          "type": "uint256"
        }
      ],
      "stateMutability": "view",
      "type": "function"
    },
    {
      "inputs": [
        {
          "internalType": "uint256",
          "name": "_i",
          "type": "uint256"
        }
      ],
      "name": "testRequire",
      "outputs": [],
      "stateMutability": "pure",
      "type": "function"
    },
    {
      "inputs": [
        {
          "internalType": "uint256",
          "name": "_i",
          "type": "uint256"
        }
      ],
      "name": "testRevert",
      "outputs": [],
      "stateMutability": "pure",
      "type": "function"
    },
    {
      "inputs": [],
      "name": "testAssert",
      "outputs": [],
      "stateMutability": "view",
      "type": "function"
    },
    {
      "inputs": [
        {
          "internalType": "uint256",
          "name": "_withdrawAmount",
          "type": "uint256"
        }
      ],
      "name": "testCustomError",
      "outputs": [],
      "stateMutability": "view",
      "type": "function"
    }
  ],
  "bytecode": "0x60806040525f8055348015610012575f80fd5b506104a8806100205f395ff3fe608060405234801561000f575f80fd5b5060043610610055575f3560e01c806320987767146100595780632b813bc0146100755780634e70b1dc1461007f57806375f7286c1461009d578063b8bd717f146100b9575b5f80fd5b610073600480360381019061006e919061025a565b6100d5565b005b61007d61011b565b005b61008761012e565b6040516100949190610294565b60405180910390f35b6100b760048036038101906100b2919061025a565b610133565b005b6100d360048036038101906100ce919061025a565b6101dd565b005b600a8111610118576040517f08c379a000000000000000000000000000000000000000000000000000000000815260040161010f90610307565b60405180910390fd5b50565b5f80541461012c5761012b610325565b5b565b5f5481565b5f479050818110156101d957604051806040016040528060405180604001604052808481526020018581525081526020016040518060400160405280600c81526020017fe4bd99e9a29de4b88de8b6b300000000000000000000000000000000000000008152508152506040517f82b331170000000000000000000000000000000000000000000000000000000081526004016101d09190610452565b60405180910390fd5b5050565b600a8111610220576040517f08c379a000000000000000000000000000000000000000000000000000000000815260040161021790610307565b60405180910390fd5b50565b5f80fd5b5f819050919050565b61023981610227565b8114610243575f80fd5b50565b5f8135905061025481610230565b92915050565b5f6020828403121561026f5761026e610223565b5b5f61027c84828501610246565b91505092915050565b61028e81610227565b82525050565b5f6020820190506102a75f830184610285565b92915050565b5f82825260208201905092915050565b7fe8be93e585a5e5bf85e9a1bbe5a4a7e4ba8e31300000000000000000000000005f82015250565b5f6102f16014836102ad565b91506102fc826102bd565b602082019050919050565b5f6020820190508181035f83015261031e816102e5565b9050919050565b7f4e487b71000000000000000000000000000000000000000000000000000000005f52600160045260245ffd5b61035b81610227565b82525050565b604082015f8201516103755f850182610352565b5060208201516103886020850182610352565b50505050565b5f81519050919050565b5f82825260208201905092915050565b5f5b838110156103c55780820151818401526020810190506103aa565b5f8484015250505050565b5f601f19601f8301169050919050565b5f6103ea8261038e565b6103f48185610398565b93506104048185602086016103a8565b61040d816103d0565b840191505092915050565b5f606083015f83015161042d5f860182610361565b506020830151848203604086015261044582826103e0565b9150508091505092915050565b5f6020820190508181035f83015261046a8184610418565b90509291505056fea2646970667358221220edb1967b088e3302f5e74f819c0a88d122d3921dee4de8763e240481cfcf10d564736f6c63430008140033",
  "immutableReferences": {},
  "source": "// SPDX-License-Identifier: MIT\r\npragma solidity ^0.8.20;\r\n\r\n/**\r\n * \r\n *  require  revert  assert \r\n *  - require \r\n *  - revert  require \r\n *  - assert  false \r\n */\r\n\r\ncontract Error {\r\n\r\n  function testRequire(uint _i) public pure {\r\n    // Require \r\n    // - \r\n    // - \r\n    // - \r\n    require(_i > 10, unicode\"10\");\r\n  }\r\n\r\n  function testRevert(uint _i) public pure {\r\n    // revertrequire\r\n    if(_i <= 10) {\r\n      revert(unicode\"10\");\r\n    }\r\n  }\r\n\r\n\r\n  uint public num = 0;\r\n  function testAssert() public view {\r\n    // assert\r\n    // \r\n    //  num  0\r\n    // \r\n    assert(num == 0);\r\n  }\r\n\r\n  // Errorerror\r\n  // \r\n  struct ErrorData {\r\n    uint balance;\r\n    uint withdrawAmount;\r\n  }\r\n  struct ErrorResponse {\r\n    ErrorData data;\r\n    string info;\r\n  }\r\n  error InsufficientBalance(ErrorResponse errorResponse);\r\n  \r\n  function testCustomError(uint _withdrawAmount) public view {\r\n    uint bal = address(this).balance;\r\n\r\n    if(bal < _withdrawAmount) {\r\n      // \r\n      revert InsufficientBalance(ErrorResponse({\r\n        data:ErrorData(bal,_withdrawAmount),\r\n        info:unicode\"\"\r\n      }));\r\n    }\r\n  }\r\n\r\n\r\n}",
  "sourcePath": "C:\\Users\\Sears\\Desktop\\blockchain_learn\\truffle-example\\contracts\\14_Error.sol",
  "compiler": {
    "name": "solc",
    "version": "0.8.20+commit.a1b79de6.Emscripten.clang"
  },
  "schemaVersion": "3.4.15",
  "updatedAt": "2023-11-26T08:09:23.341Z",
  "devdoc": {
    "kind": "dev",
    "methods": {},
    "version": 1
  },
  "userdoc": {
    "kind": "user",
    "methods": {},
    "notice": "  require  revert  assert   - require   - revert  require   - assert  false ",
    "version": 1
  }
}