{
  "contractName": "EtherUnits",
  "abi": [
    {
      "inputs": [],
      "name": "isOneEther",
      "outputs": [
        {
          "internalType": "bool",
          "name": "",
          "type": "bool"
        }
      ],
      "stateMutability": "view",
      "type": "function"
    },
    {
      "inputs": [],
      "name": "isOonWei",
      "outputs": [
        {
          "internalType": "bool",
          "name": "",
          "type": "bool"
        }
      ],
      "stateMutability": "view",
      "type": "function"
    },
    {
      "inputs": [],
      "name": "oneEther",
      "outputs": [
        {
          "internalType": "uint256",
          "name": "",
          "type": "uint256"
        }
      ],
      "stateMutability": "view",
      "type": "function"
    },
    {
      "inputs": [],
      "name": "oneWei",
      "outputs": [
        {
          "internalType": "uint256",
          "name": "",
          "type": "uint256"
        }
      ],
      "stateMutability": "view",
      "type": "function"
    }
  ],
  "bytecode": "0x608060405260015f556001801460015f6101000a81548160ff021916908315150217905550670de0b6b3a7640000600255670de0b6b3a7640000801460035f6101000a81548160ff02191690831515021790555034801561005e575f80fd5b5061018f8061006c5f395ff3fe608060405234801561000f575f80fd5b506004361061004a575f3560e01c80634fb2e0be1461004e5780636d76038c1461006c578063cf0f5d291461008a578063d297a89f146100a8575b5f80fd5b6100566100c6565b604051610063919061010d565b60405180910390f35b6100746100cb565b6040516100819190610140565b60405180910390f35b6100926100dd565b60405161009f9190610140565b60405180910390f35b6100b06100ef565b6040516100bd919061010d565b60405180910390f35b5f5481565b60015f9054906101000a900460ff1681565b60035f9054906101000a900460ff1681565b60025481565b5f819050919050565b610107816100f5565b82525050565b5f6020820190506101205f8301846100fe565b92915050565b5f8115159050919050565b61013a81610126565b82525050565b5f6020820190506101535f830184610131565b9291505056fea26469706673582212209ac327609a096183385802897c034f9622c5654fa3af77ddf7226eeebc86df7c64736f6c63430008140033",
  "immutableReferences": {},
  "source": "// SPDX-License-Identifier: MIT \r\npragma solidity ^0.8.20;\r\n\r\ncontract EtherUnits {\r\n  uint public oneWei = 1 wei;\r\n  // 1 wei 等于 1\r\n  // 1 wei 等于 10^9 gwei\r\n  bool public isOonWei = 1 wei == 1;\r\n  uint public oneEther = 1 ether;\r\n  // 1 eth 等于 10^18 wei\r\n  bool public isOneEther = 1 ether == 1e18;\r\n}",
  "sourcePath": "C:\\Users\\Sears\\Desktop\\blockchain_learn\\truffle-example\\contracts\\5_EtherAndWei.sol",
  "compiler": {
    "name": "solc",
    "version": "0.8.20+commit.a1b79de6.Emscripten.clang"
  },
  "schemaVersion": "3.4.15",
  "updatedAt": "2023-11-26T08:09:23.392Z",
  "devdoc": {
    "kind": "dev",
    "methods": {},
    "version": 1
  },
  "userdoc": {
    "kind": "user",
    "methods": {},
    "version": 1
  }
}