{
  "contractName": "Function",
  "abi": [
    {
      "inputs": [],
      "name": "returnMany",
      "outputs": [
        {
          "internalType": "uint256",
          "name": "",
          "type": "uint256"
        },
        {
          "internalType": "bool",
          "name": "",
          "type": "bool"
        },
        {
          "internalType": "uint256",
          "name": "",
          "type": "uint256"
        }
      ],
      "stateMutability": "pure",
      "type": "function"
    },
    {
      "inputs": [],
      "name": "named",
      "outputs": [
        {
          "internalType": "uint256",
          "name": "x",
          "type": "uint256"
        },
        {
          "internalType": "bool",
          "name": "b",
          "type": "bool"
        },
        {
          "internalType": "uint256",
          "name": "y",
          "type": "uint256"
        }
      ],
      "stateMutability": "pure",
      "type": "function"
    },
    {
      "inputs": [],
      "name": "destructuringAssignments",
      "outputs": [
        {
          "internalType": "uint256",
          "name": "",
          "type": "uint256"
        },
        {
          "internalType": "bool",
          "name": "",
          "type": "bool"
        },
        {
          "internalType": "uint256",
          "name": "",
          "type": "uint256"
        },
        {
          "internalType": "uint256",
          "name": "",
          "type": "uint256"
        },
        {
          "internalType": "uint256",
          "name": "",
          "type": "uint256"
        }
      ],
      "stateMutability": "pure",
      "type": "function"
    }
  ],
  "bytecode": "0x608060405234801561000f575f80fd5b506101f78061001d5f395ff3fe608060405234801561000f575f80fd5b506004361061003f575f3560e01c806345f907a81461004357806368873440146100635780638688754414610085575b5f80fd5b61004b6100a5565b60405161005a9392919061013b565b60405180910390f35b61006b6100b8565b60405161007c959493929190610170565b60405180910390f35b61008d6100f6565b60405161009c9392919061013b565b60405180910390f35b5f805f6001806002925092509250909192565b5f805f805f805f806100c86100f6565b9250925092505f80600160026003925050915084848484849950995099509950995050505050509091929394565b5f805f6001806002925092509250909192565b5f819050919050565b61011b81610109565b82525050565b5f8115159050919050565b61013581610121565b82525050565b5f60608201905061014e5f830186610112565b61015b602083018561012c565b6101686040830184610112565b949350505050565b5f60a0820190506101835f830188610112565b610190602083018761012c565b61019d6040830186610112565b6101aa6060830185610112565b6101b76080830184610112565b969550505050505056fea264697066735822122063b2189c549b17d255f881299d9a146f0d61df0abd91a11ca1fa2310ed849c1664736f6c63430008140033",
  "immutableReferences": {},
  "source": "// SPDX-License-Identifier: MIT\r\npragma solidity ^0.8.20;\r\n\r\npragma solidity 0.8.20;\r\n\r\ncontract Function {\r\n  // 可以指定函数返回值类型\r\n  function returnMany() public pure returns (uint,bool,uint) {\r\n    return (1,true,2);\r\n  }\r\n\r\n  // 可以指定函数返回值命名和其类型\r\n  function named() public pure returns (uint x,bool b,uint y) {\r\n    return (1,true,2);\r\n  }\r\n\r\n  // 可以通过解构其他函数的返回值\r\n  function destructuringAssignments () public pure returns (uint,bool,uint,uint,uint) {\r\n    // 解构函数调用的返回值\r\n    (uint x,bool b,uint y) = returnMany();\r\n\r\n    // 值可以省略\r\n    (uint i,,uint j) = (1,2,3); // i = 1，j = 3\r\n\r\n    return (x,b,y,i,j);\r\n  }\r\n  \r\n}",
  "sourcePath": "C:\\Users\\Sears\\Desktop\\blockchain_learn\\truffle-example\\contracts\\13_Function.sol",
  "compiler": {
    "name": "solc",
    "version": "0.8.20+commit.a1b79de6.Emscripten.clang"
  },
  "schemaVersion": "3.4.15",
  "updatedAt": "2023-11-26T08:09:23.338Z",
  "devdoc": {
    "kind": "dev",
    "methods": {},
    "version": 1
  },
  "userdoc": {
    "kind": "user",
    "methods": {},
    "version": 1
  }
}