{
  "contractName": "FunctionModifier",
  "abi": [
    {
      "inputs": [],
      "stateMutability": "nonpayable",
      "type": "constructor"
    },
    {
      "inputs": [],
      "name": "locked",
      "outputs": [
        {
          "internalType": "bool",
          "name": "",
          "type": "bool"
        }
      ],
      "stateMutability": "view",
      "type": "function"
    },
    {
      "inputs": [],
      "name": "owner",
      "outputs": [
        {
          "internalType": "address",
          "name": "",
          "type": "address"
        }
      ],
      "stateMutability": "view",
      "type": "function"
    },
    {
      "inputs": [],
      "name": "x",
      "outputs": [
        {
          "internalType": "uint256",
          "name": "",
          "type": "uint256"
        }
      ],
      "stateMutability": "view",
      "type": "function"
    },
    {
      "inputs": [
        {
          "internalType": "address",
          "name": "_newOwner",
          "type": "address"
        }
      ],
      "name": "changeOwner",
      "outputs": [],
      "stateMutability": "nonpayable",
      "type": "function"
    },
    {
      "inputs": [
        {
          "internalType": "uint256",
          "name": "i",
          "type": "uint256"
        }
      ],
      "name": "decrement",
      "outputs": [],
      "stateMutability": "nonpayable",
      "type": "function"
    }
  ],
  "bytecode": "0x6080604052600a600155348015610014575f80fd5b50335f806101000a81548173ffffffffffffffffffffffffffffffffffffffff021916908373ffffffffffffffffffffffffffffffffffffffff160217905550610669806100615f395ff3fe608060405234801561000f575f80fd5b5060043610610055575f3560e01c80630c55699c146100595780633a9ebefd146100775780638da5cb5b14610093578063a6f9dae1146100b1578063cf309012146100cd575b5f80fd5b6100616100eb565b60405161006e9190610339565b60405180910390f35b610091600480360381019061008c9190610380565b6100f1565b005b61009b6101ad565b6040516100a891906103ea565b60405180910390f35b6100cb60048036038101906100c6919061042d565b6101d0565b005b6100d561030f565b6040516100e29190610472565b60405180910390f35b60015481565b60025f9054906101000a900460ff1615610140576040517f08c379a0000000000000000000000000000000000000000000000000000000008152600401610137906104e5565b60405180910390fd5b600160025f6101000a81548160ff0219169083151502179055508060015f82825461016b9190610530565b9250508190555060018111156101915761019060018261018b9190610530565b6100f1565b5b5f60025f6101000a81548160ff02191690831515021790555050565b5f8054906101000a900473ffffffffffffffffffffffffffffffffffffffff1681565b5f8054906101000a900473ffffffffffffffffffffffffffffffffffffffff1673ffffffffffffffffffffffffffffffffffffffff163373ffffffffffffffffffffffffffffffffffffffff161461025d576040517f08c379a0000000000000000000000000000000000000000000000000000000008152600401610254906105ad565b60405180910390fd5b805f73ffffffffffffffffffffffffffffffffffffffff168173ffffffffffffffffffffffffffffffffffffffff16036102cc576040517f08c379a00000000000000000000000000000000000000000000000000000000081526004016102c390610615565b60405180910390fd5b815f806101000a81548173ffffffffffffffffffffffffffffffffffffffff021916908373ffffffffffffffffffffffffffffffffffffffff1602179055505050565b60025f9054906101000a900460ff1681565b5f819050919050565b61033381610321565b82525050565b5f60208201905061034c5f83018461032a565b92915050565b5f80fd5b61035f81610321565b8114610369575f80fd5b50565b5f8135905061037a81610356565b92915050565b5f6020828403121561039557610394610352565b5b5f6103a28482850161036c565b91505092915050565b5f73ffffffffffffffffffffffffffffffffffffffff82169050919050565b5f6103d4826103ab565b9050919050565b6103e4816103ca565b82525050565b5f6020820190506103fd5f8301846103db565b92915050565b61040c816103ca565b8114610416575f80fd5b50565b5f8135905061042781610403565b92915050565b5f6020828403121561044257610441610352565b5b5f61044f84828501610419565b91505092915050565b5f8115159050919050565b61046c81610458565b82525050565b5f6020820190506104855f830184610463565b92915050565b5f82825260208201905092915050565b7f4e6f205265656e7472616e6379210000000000000000000000000000000000005f82015250565b5f6104cf600e8361048b565b91506104da8261049b565b602082019050919050565b5f6020820190508181035f8301526104fc816104c3565b9050919050565b7f4e487b71000000000000000000000000000000000000000000000000000000005f52601160045260245ffd5b5f61053a82610321565b915061054583610321565b925082820390508181111561055d5761055c610503565b5b92915050565b7f4e6f74206f776e657200000000000000000000000000000000000000000000005f82015250565b5f61059760098361048b565b91506105a282610563565b602082019050919050565b5f6020820190508181035f8301526105c48161058b565b9050919050565b7f4e6f742076616c696420616464726573730000000000000000000000000000005f82015250565b5f6105ff60118361048b565b915061060a826105cb565b602082019050919050565b5f6020820190508181035f83015261062c816105f3565b905091905056fea2646970667358221220945879edacf9352ceeb52f762ce329bbd4e664b546c4437c50f86f82b151953364736f6c63430008140033",
  "immutableReferences": {},
  "source": "// SPDX-License-Identifier: MIT\r\npragma solidity ^0.8.20;\r\n\r\ncontract FunctionModifier {\r\n  address public owner;\r\n  uint public x = 10;\r\n  bool public locked;\r\n\r\n  constructor () {\r\n    owner = msg.sender;\r\n  }\r\n\r\n  // \r\n  modifier onlyOwner() {\r\n    require(msg.sender == owner,\"Not owner\");\r\n    // _ next\r\n    _;\r\n  }\r\n\r\n  // \r\n  modifier validAddress(address _addr) {\r\n    // 0\r\n    require(_addr != address(0),\"Not valid address\");\r\n    _;\r\n  }\r\n\r\n  function changeOwner (address _newOwner) public onlyOwner validAddress(_newOwner) {\r\n    owner = _newOwner;\r\n  }\r\n\r\n  // /\r\n  // example\r\n  modifier noReentrancy() {\r\n    // lockedfalse\r\n    require(!locked,\"No Reentrancy!\");\r\n    locked = true;\r\n    _;\r\n    locked = false;\r\n  }\r\n\r\n  function decrement(uint i) public noReentrancy {\r\n    x -= i;\r\n    if(i > 1) {\r\n      decrement(i - 1);\r\n    }\r\n  }\r\n}",
  "sourcePath": "C:\\Users\\Sears\\Desktop\\blockchain_learn\\truffle-example\\contracts\\15_Function_Modifier.sol",
  "compiler": {
    "name": "solc",
    "version": "0.8.20+commit.a1b79de6.Emscripten.clang"
  },
  "schemaVersion": "3.4.15",
  "updatedAt": "2023-11-26T08:09:23.345Z",
  "devdoc": {
    "kind": "dev",
    "methods": {},
    "version": 1
  },
  "userdoc": {
    "kind": "user",
    "methods": {},
    "version": 1
  }
}