{
  "contractName": "Gas",
  "abi": [
    {
      "inputs": [],
      "name": "i",
      "outputs": [
        {
          "internalType": "uint256",
          "name": "",
          "type": "uint256"
        }
      ],
      "stateMutability": "view",
      "type": "function"
    },
    {
      "inputs": [],
      "name": "forever",
      "outputs": [],
      "stateMutability": "nonpayable",
      "type": "function"
    }
  ],
  "bytecode": "0x60806040525f8055348015610012575f80fd5b50610153806100205f395ff3fe608060405234801561000f575f80fd5b5060043610610034575f3560e01c80639ff9a60314610038578063e5aa3d5814610042575b5f80fd5b610040610060565b005b61004a610087565b60405161005791906100a4565b60405180910390f35b5b6001156100855760015f8082825461007991906100ea565b92505081905550610061565b565b5f5481565b5f819050919050565b61009e8161008c565b82525050565b5f6020820190506100b75f830184610095565b92915050565b7f4e487b71000000000000000000000000000000000000000000000000000000005f52601160045260245ffd5b5f6100f48261008c565b91506100ff8361008c565b9250828201905080821115610117576101166100bd565b5b9291505056fea26469706673582212202039f367cfdccf85c4a331cfea6a0283c76286ff2cf07f193567da09f9634c3b64736f6c63430008140033",
  "immutableReferences": {},
  "source": "// SPDX-License-Identifier: MIT \r\npragma solidity ^0.8.20;\r\n\r\n/**\r\n * 单位：\r\n *  1 wei = 10^-18 eth\r\n *  1 gwei = 10^-9 eth\r\n * 每一次transaction（交易）都会消耗一定的Gas，不论交易成功与否\r\n * 计算方式：\r\n *  Gas花费 = 消耗的Gas数量（Gas Used） x Gas的价格（base fee（基本费） + priority fee（小费））\r\n *  其中 base fee 是协议设置的值（每个区块都有一个base fee作为底价），priority fee 是用户设置的值，即给验证者（矿工）的小费。\r\n *  小费越高，矿工越愿意打包你的交易，从而交易速度越快。\r\n */\r\n\r\ncontract Gas {\r\n  uint public i = 0;\r\n\r\n  //用完您发送的所有 Gas 会导致交易失败。\r\n  //状态更改被撤消。\r\n  //消耗的 Gas 不予退还。\r\n  \r\n  function forever() public {\r\n    while(true) {\r\n      // 对状态的一次操作等同于一次transaction（交易）\r\n      i += 1;\r\n    }\r\n  }\r\n  \r\n}",
  "sourcePath": "C:\\Users\\Sears\\Desktop\\blockchain_learn\\truffle-example\\contracts\\6_Gas.sol",
  "compiler": {
    "name": "solc",
    "version": "0.8.20+commit.a1b79de6.Emscripten.clang"
  },
  "schemaVersion": "3.4.15",
  "updatedAt": "2023-11-26T08:09:23.393Z",
  "devdoc": {
    "kind": "dev",
    "methods": {},
    "version": 1
  },
  "userdoc": {
    "kind": "user",
    "methods": {},
    "notice": "单位：  1 wei = 10^-18 eth  1 gwei = 10^-9 eth 每一次transaction（交易）都会消耗一定的Gas，不论交易成功与否 计算方式：  Gas花费 = 消耗的Gas数量（Gas Used） x Gas的价格（base fee（基本费） + priority fee（小费））  其中 base fee 是协议设置的值（每个区块都有一个base fee作为底价），priority fee 是用户设置的值，即给验证者（矿工）的小费。  小费越高，矿工越愿意打包你的交易，从而交易速度越快。",
    "version": 1
  }
}