{
  "contractName": "IfElse",
  "abi": [
    {
      "inputs": [
        {
          "internalType": "uint256",
          "name": "x",
          "type": "uint256"
        }
      ],
      "name": "foo",
      "outputs": [
        {
          "internalType": "uint256",
          "name": "",
          "type": "uint256"
        }
      ],
      "stateMutability": "pure",
      "type": "function"
    },
    {
      "inputs": [
        {
          "internalType": "uint256",
          "name": "_x",
          "type": "uint256"
        }
      ],
      "name": "ternary",
      "outputs": [
        {
          "internalType": "uint256",
          "name": "",
          "type": "uint256"
        }
      ],
      "stateMutability": "pure",
      "type": "function"
    }
  ],
  "bytecode": "0x608060405234801561000f575f80fd5b506101b28061001d5f395ff3fe608060405234801561000f575f80fd5b5060043610610034575f3560e01c80632fbebd381461003857806355278c5b14610068575b5f80fd5b610052600480360381019061004d9190610129565b610098565b60405161005f9190610163565b60405180910390f35b610082600480360381019061007d9190610129565b6100c6565b60405161008f9190610163565b60405180910390f35b5f600a8210156100aa575f90506100c1565b60148210156100bc57600190506100c1565b600290505b919050565b5f600a82106100e657601482106100de5760026100e1565b60015b6100e8565b5f5b60ff169050919050565b5f80fd5b5f819050919050565b610108816100f6565b8114610112575f80fd5b50565b5f81359050610123816100ff565b92915050565b5f6020828403121561013e5761013d6100f2565b5b5f61014b84828501610115565b91505092915050565b61015d816100f6565b82525050565b5f6020820190506101765f830184610154565b9291505056fea264697066735822122043b0a21160a6b8d330eaf103ddfe61339cc4e723f1d8a3e3b40e2b4d2568899964736f6c63430008140033",
  "immutableReferences": {},
  "source": "// SPDX-License-Identifier: MIT \r\npragma solidity ^0.8.20;\r\n\r\n/**\r\n * solidity 支持if else if以及else语句，也包括三元运算符\r\n */\r\n\r\ncontract IfElse {\r\n\r\n  function foo(uint x) public pure returns(uint) {\r\n    // 基础条件分支语句\r\n    if(x < 10) {\r\n      return 0;\r\n    } else if(x < 20){\r\n      return 1;\r\n    } else {\r\n      return 2;\r\n    }\r\n  }\r\n\r\n  function ternary(uint _x) public pure returns(uint) {\r\n    // 三元运算符\r\n    return _x < 10 ? 0 : _x < 20 ? 1 : 2;\r\n  }\r\n}",
  "sourcePath": "C:\\Users\\Sears\\Desktop\\blockchain_learn\\truffle-example\\contracts\\7_IfElse.sol",
  "compiler": {
    "name": "solc",
    "version": "0.8.20+commit.a1b79de6.Emscripten.clang"
  },
  "schemaVersion": "3.4.15",
  "updatedAt": "2023-11-26T08:09:23.394Z",
  "devdoc": {
    "kind": "dev",
    "methods": {},
    "version": 1
  },
  "userdoc": {
    "kind": "user",
    "methods": {},
    "notice": "solidity 支持if else if以及else语句，也包括三元运算符",
    "version": 1
  }
}