{
  "contractName": "Immutable",
  "abi": [
    {
      "inputs": [
        {
          "internalType": "address",
          "name": "_MY_ADDR",
          "type": "address"
        }
      ],
      "stateMutability": "nonpayable",
      "type": "constructor"
    },
    {
      "inputs": [],
      "name": "BLOCK_TS",
      "outputs": [
        {
          "internalType": "uint256",
          "name": "",
          "type": "uint256"
        }
      ],
      "stateMutability": "view",
      "type": "function"
    },
    {
      "inputs": [],
      "name": "MY_ADDR",
      "outputs": [
        {
          "internalType": "address",
          "name": "",
          "type": "address"
        }
      ],
      "stateMutability": "view",
      "type": "function"
    }
  ],
  "bytecode": "0x60c06040524260a090815250348015610016575f80fd5b50604051610295380380610295833981810160405281019061003891906100d0565b8073ffffffffffffffffffffffffffffffffffffffff1660808173ffffffffffffffffffffffffffffffffffffffff1681525050506100fb565b5f80fd5b5f73ffffffffffffffffffffffffffffffffffffffff82169050919050565b5f61009f82610076565b9050919050565b6100af81610095565b81146100b9575f80fd5b50565b5f815190506100ca816100a6565b92915050565b5f602082840312156100e5576100e4610072565b5b5f6100f2848285016100bc565b91505092915050565b60805160a05161017b61011a5f395f609a01525f6076015261017b5ff3fe608060405234801561000f575f80fd5b5060043610610034575f3560e01c80632db78e591461003857806373b77a2a14610056575b5f80fd5b610040610074565b60405161004d91906100fb565b60405180910390f35b61005e610098565b60405161006b919061012c565b60405180910390f35b7f000000000000000000000000000000000000000000000000000000000000000081565b7f000000000000000000000000000000000000000000000000000000000000000081565b5f73ffffffffffffffffffffffffffffffffffffffff82169050919050565b5f6100e5826100bc565b9050919050565b6100f5816100db565b82525050565b5f60208201905061010e5f8301846100ec565b92915050565b5f819050919050565b61012681610114565b82525050565b5f60208201905061013f5f83018461011d565b9291505056fea26469706673582212206f6334c4e3a899e5ebf55243a96850946976b65de3eb46d798697bf67a31a1fb64736f6c63430008140033",
  "immutableReferences": {
    "848": [
      {
        "length": 32,
        "start": 118
      }
    ],
    "852": [
      {
        "length": 32,
        "start": 154
      }
    ]
  },
  "source": "// SPDX-License-Identifier: MIT \r\npragma solidity ^0.8.20;\r\n\r\n/**\r\n * 使用immutable关键字声明不可变变量\r\n * 和constant关键字不同，immutable变量可以在构造函数中初始化\r\n * 目前string并不支持immutable\r\n */\r\n\r\ncontract Immutable {\r\n  // 未初始化的不可变变量，可通过构造函数初始化\r\n  address public immutable MY_ADDR;\r\n  // 初始化后的不可变变量\r\n  uint public immutable BLOCK_TS = block.timestamp;\r\n\r\n  constructor(address _MY_ADDR) {\r\n    MY_ADDR = _MY_ADDR;\r\n  }\r\n}",
  "sourcePath": "C:\\Users\\Sears\\Desktop\\blockchain_learn\\truffle-example\\contracts\\4_Immutable.sol",
  "compiler": {
    "name": "solc",
    "version": "0.8.20+commit.a1b79de6.Emscripten.clang"
  },
  "schemaVersion": "3.4.15",
  "updatedAt": "2023-11-26T08:09:23.391Z",
  "devdoc": {
    "kind": "dev",
    "methods": {},
    "version": 1
  },
  "userdoc": {
    "kind": "user",
    "methods": {},
    "notice": "使用immutable关键字声明不可变变量 和constant关键字不同，immutable变量可以在构造函数中初始化 目前string并不支持immutable",
    "version": 1
  }
}