{
  "contractName": "Loop",
  "abi": [
    {
      "inputs": [
        {
          "internalType": "uint256",
          "name": "x",
          "type": "uint256"
        }
      ],
      "name": "loop",
      "outputs": [
        {
          "internalType": "uint256",
          "name": "",
          "type": "uint256"
        }
      ],
      "stateMutability": "pure",
      "type": "function"
    }
  ],
  "bytecode": "0x608060405234801561000f575f80fd5b506101ed8061001d5f395ff3fe608060405234801561000f575f80fd5b5060043610610029575f3560e01c80630b7d796e1461002d575b5f80fd5b610047600480360381019061004291906100f0565b61005d565b604051610054919061012a565b60405180910390f35b5f805f90505b8281101561009157600381031561007e576005810315610091575b808061008990610170565b915050610063565b505f5b600a8110156100b05780806100a890610170565b915050610094565b80915050919050565b5f80fd5b5f819050919050565b6100cf816100bd565b81146100d9575f80fd5b50565b5f813590506100ea816100c6565b92915050565b5f60208284031215610105576101046100b9565b5b5f610112848285016100dc565b91505092915050565b610124816100bd565b82525050565b5f60208201905061013d5f83018461011b565b92915050565b7f4e487b71000000000000000000000000000000000000000000000000000000005f52601160045260245ffd5b5f61017a826100bd565b91507fffffffffffffffffffffffffffffffffffffffffffffffffffffffffffffffff82036101ac576101ab610143565b5b60018201905091905056fea2646970667358221220f181cd7607bb2a9a16024acd572541d1fcbcf29df125b4c23d4b4863d1cb0d3864736f6c63430008140033",
  "immutableReferences": {},
  "source": "// SPDX-License-Identifier: MIT \r\npragma solidity ^0.8.20;\r\n\r\n/**\r\n * solidity支持for和while这类loop循环语句\r\n */\r\n\r\ncontract Loop {\r\n  function loop (uint x) public pure returns(uint) {\r\n    // for循环语句\r\n    for (uint i = 0; i < x; i++) {\r\n      if(i == 3) {\r\n        continue;\r\n      } else if (i == 5) {\r\n        break;\r\n      }\r\n    }\r\n\r\n    uint j;\r\n    // while循环语句\r\n    while(j < 10) {\r\n      j++;\r\n    }\r\n    return j;\r\n  }\r\n}",
  "sourcePath": "C:\\Users\\Sears\\Desktop\\blockchain_learn\\truffle-example\\contracts\\8_Loop.sol",
  "compiler": {
    "name": "solc",
    "version": "0.8.20+commit.a1b79de6.Emscripten.clang"
  },
  "schemaVersion": "3.4.15",
  "updatedAt": "2023-11-26T08:09:23.397Z",
  "devdoc": {
    "kind": "dev",
    "methods": {},
    "version": 1
  },
  "userdoc": {
    "kind": "user",
    "methods": {},
    "notice": "solidity支持for和while这类loop循环语句",
    "version": 1
  }
}