{
  "contractName": "NestedMapping",
  "abi": [
    {
      "inputs": [
        {
          "internalType": "address",
          "name": "",
          "type": "address"
        },
        {
          "internalType": "uint256",
          "name": "",
          "type": "uint256"
        }
      ],
      "name": "nestedMapping",
      "outputs": [
        {
          "internalType": "bool",
          "name": "",
          "type": "bool"
        }
      ],
      "stateMutability": "view",
      "type": "function"
    },
    {
      "inputs": [
        {
          "internalType": "address",
          "name": "_addr",
          "type": "address"
        },
        {
          "internalType": "uint256",
          "name": "i",
          "type": "uint256"
        }
      ],
      "name": "get",
      "outputs": [
        {
          "internalType": "bool",
          "name": "",
          "type": "bool"
        }
      ],
      "stateMutability": "view",
      "type": "function"
    },
    {
      "inputs": [
        {
          "internalType": "address",
          "name": "_addr",
          "type": "address"
        },
        {
          "internalType": "uint256",
          "name": "i",
          "type": "uint256"
        },
        {
          "internalType": "bool",
          "name": "_bool",
          "type": "bool"
        }
      ],
      "name": "set",
      "outputs": [],
      "stateMutability": "nonpayable",
      "type": "function"
    },
    {
      "inputs": [
        {
          "internalType": "address",
          "name": "_addr",
          "type": "address"
        },
        {
          "internalType": "uint256",
          "name": "i",
          "type": "uint256"
        }
      ],
      "name": "remove",
      "outputs": [],
      "stateMutability": "nonpayable",
      "type": "function"
    }
  ],
  "bytecode": "0x608060405234801561000f575f80fd5b506103e78061001d5f395ff3fe608060405234801561000f575f80fd5b506004361061004a575f3560e01c80630b1391941461004e578063abe7f1ab1461006a578063b464631b14610086578063d8029046146100b6575b5f80fd5b610068600480360381019061006391906102fb565b6100e6565b005b610084600480360381019061007f919061034b565b61014d565b005b6100a0600480360381019061009b919061034b565b6101ab565b6040516100ad9190610398565b60405180910390f35b6100d060048036038101906100cb919061034b565b61020c565b6040516100dd9190610398565b60405180910390f35b805f808573ffffffffffffffffffffffffffffffffffffffff1673ffffffffffffffffffffffffffffffffffffffff1681526020019081526020015f205f8481526020019081526020015f205f6101000a81548160ff021916908315150217905550505050565b5f808373ffffffffffffffffffffffffffffffffffffffff1673ffffffffffffffffffffffffffffffffffffffff1681526020019081526020015f205f8281526020019081526020015f205f6101000a81549060ff02191690555050565b5f805f8473ffffffffffffffffffffffffffffffffffffffff1673ffffffffffffffffffffffffffffffffffffffff1681526020019081526020015f205f8381526020019081526020015f205f9054906101000a900460ff16905092915050565b5f602052815f5260405f20602052805f5260405f205f915091509054906101000a900460ff1681565b5f80fd5b5f73ffffffffffffffffffffffffffffffffffffffff82169050919050565b5f61026282610239565b9050919050565b61027281610258565b811461027c575f80fd5b50565b5f8135905061028d81610269565b92915050565b5f819050919050565b6102a581610293565b81146102af575f80fd5b50565b5f813590506102c08161029c565b92915050565b5f8115159050919050565b6102da816102c6565b81146102e4575f80fd5b50565b5f813590506102f5816102d1565b92915050565b5f805f6060848603121561031257610311610235565b5b5f61031f8682870161027f565b9350506020610330868287016102b2565b9250506040610341868287016102e7565b9150509250925092565b5f806040838503121561036157610360610235565b5b5f61036e8582860161027f565b925050602061037f858286016102b2565b9150509250929050565b610392816102c6565b82525050565b5f6020820190506103ab5f830184610389565b9291505056fea26469706673582212200c7a6545a7e1d20029b42d34649fb1eb7416b30cfb107c6496f36e9c72021c6e64736f6c63430008140033",
  "immutableReferences": {},
  "source": "// SPDX-License-Identifier: MIT \r\n\r\ncontract SimpleStorage2 {\r\n    // mapping,\r\n    // addresskey,uintvalue\r\n    mapping(address => uint256) public balances;\r\n\r\n    function getBalances(address _address) view public returns(uint256) {\r\n        return balances[_address];        \r\n    }\r\n\r\n    function addAddress (address _address,uint256 _balances) public {\r\n        balances[_address] = _balances;\r\n    }\r\n\r\n    function removeAddress (address _addr) public {\r\n        delete balances[_addr];\r\n    }\r\n\r\n    // :\r\n    /* \r\n     * 1.\r\n     *  mappingbooluintintaddressbytes\r\n     *  \r\n     * 2.\r\n     *  mappingmapping\r\n     * 3.\r\n     *  mapping\r\n     * 4.\r\n     *  mapping\r\n     * 5.\r\n     *  mappingmapping\r\n    */\r\n}\r\n\r\ncontract NestedMapping {\r\n    // mapping\r\n    mapping(address => mapping(uint => bool)) public nestedMapping;\r\n\r\n    function get(address _addr,uint i) public view returns(bool) {\r\n        // mapping value\r\n        return nestedMapping[_addr][i];\r\n    }\r\n\r\n    function set(address _addr,uint i,bool _bool) public {\r\n        nestedMapping[_addr][i] = _bool;\r\n    }\r\n\r\n    function remove(address _addr,uint i) public {\r\n        delete nestedMapping[_addr][i];\r\n    }\r\n}",
  "sourcePath": "C:\\Users\\Sears\\Desktop\\blockchain_learn\\truffle-example\\contracts\\9_Mapping.sol",
  "compiler": {
    "name": "solc",
    "version": "0.8.20+commit.a1b79de6.Emscripten.clang"
  },
  "schemaVersion": "3.4.15",
  "updatedAt": "2023-11-25T14:50:35.800Z",
  "devdoc": {
    "kind": "dev",
    "methods": {},
    "version": 1
  },
  "userdoc": {
    "kind": "user",
    "methods": {},
    "version": 1
  }
}