{
  "contractName": "SimpleStorage",
  "abi": [
    {
      "inputs": [],
      "name": "addressValue",
      "outputs": [
        {
          "internalType": "address",
          "name": "",
          "type": "address"
        }
      ],
      "stateMutability": "view",
      "type": "function"
    },
    {
      "inputs": [],
      "name": "booleanValue",
      "outputs": [
        {
          "internalType": "bool",
          "name": "",
          "type": "bool"
        }
      ],
      "stateMutability": "view",
      "type": "function"
    },
    {
      "inputs": [],
      "name": "bytesValue",
      "outputs": [
        {
          "internalType": "bytes",
          "name": "",
          "type": "bytes"
        }
      ],
      "stateMutability": "view",
      "type": "function"
    },
    {
      "inputs": [],
      "name": "intValue",
      "outputs": [
        {
          "internalType": "int256",
          "name": "",
          "type": "int256"
        }
      ],
      "stateMutability": "view",
      "type": "function"
    },
    {
      "inputs": [
        {
          "internalType": "uint256",
          "name": "",
          "type": "uint256"
        }
      ],
      "name": "persons1",
      "outputs": [
        {
          "internalType": "uint256",
          "name": "favoriteNumber",
          "type": "uint256"
        },
        {
          "internalType": "string",
          "name": "name",
          "type": "string"
        }
      ],
      "stateMutability": "view",
      "type": "function"
    },
    {
      "inputs": [
        {
          "internalType": "uint256",
          "name": "",
          "type": "uint256"
        }
      ],
      "name": "persons2",
      "outputs": [
        {
          "internalType": "uint256",
          "name": "favoriteNumber",
          "type": "uint256"
        },
        {
          "internalType": "string",
          "name": "name",
          "type": "string"
        }
      ],
      "stateMutability": "view",
      "type": "function"
    },
    {
      "inputs": [],
      "name": "strValue",
      "outputs": [
        {
          "internalType": "string",
          "name": "",
          "type": "string"
        }
      ],
      "stateMutability": "view",
      "type": "function"
    },
    {
      "inputs": [],
      "name": "uintValue",
      "outputs": [
        {
          "internalType": "uint256",
          "name": "",
          "type": "uint256"
        }
      ],
      "stateMutability": "view",
      "type": "function"
    },
    {
      "inputs": [
        {
          "internalType": "uint256",
          "name": "_uintValue",
          "type": "uint256"
        }
      ],
      "name": "store",
      "outputs": [],
      "stateMutability": "nonpayable",
      "type": "function"
    },
    {
      "inputs": [],
      "name": "retrieve",
      "outputs": [
        {
          "internalType": "uint256",
          "name": "",
          "type": "uint256"
        }
      ],
      "stateMutability": "view",
      "type": "function"
    },
    {
      "inputs": [],
      "name": "add",
      "outputs": [
        {
          "internalType": "uint256",
          "name": "",
          "type": "uint256"
        }
      ],
      "stateMutability": "pure",
      "type": "function"
    },
    {
      "inputs": [
        {
          "internalType": "uint256",
          "name": "_favoriteNumber",
          "type": "uint256"
        },
        {
          "internalType": "string",
          "name": "_name",
          "type": "string"
        }
      ],
      "name": "addPerson1",
      "outputs": [],
      "stateMutability": "nonpayable",
      "type": "function"
    },
    {
      "inputs": [
        {
          "internalType": "uint256",
          "name": "_favoriteNumber",
          "type": "uint256"
        },
        {
          "internalType": "string",
          "name": "_name",
          "type": "string"
        }
      ],
      "name": "addPerson2",
      "outputs": [],
      "stateMutability": "nonpayable",
      "type": "function"
    }
  ],
  "bytecode": "0x608060405260015f806101000a81548160ff0219169083151502179055507fffffffffffffffffffffffffffffffffffffffffffffffffffffffffffffff85600255735b38da6a701c568545dcfcb03fcb875f56beddc460035f6101000a81548173ffffffffffffffffffffffffffffffffffffffff021916908373ffffffffffffffffffffffffffffffffffffffff1602179055506040518060600160405280602b81526020016200130a602b913960049081620000bf91906200037e565b506040518060400160405280600481526020017f466976650000000000000000000000000000000000000000000000000000000081525060059081620001069190620004c4565b5034801562000113575f80fd5b50620005a8565b5f81519050919050565b7f4e487b71000000000000000000000000000000000000000000000000000000005f52604160045260245ffd5b7f4e487b71000000000000000000000000000000000000000000000000000000005f52602260045260245ffd5b5f60028204905060018216806200019657607f821691505b602082108103620001ac57620001ab62000151565b5b50919050565b5f819050815f5260205f209050919050565b5f6020601f8301049050919050565b5f82821b905092915050565b5f60088302620002107fffffffffffffffffffffffffffffffffffffffffffffffffffffffffffffffff82620001d3565b6200021c8683620001d3565b95508019841693508086168417925050509392505050565b5f819050919050565b5f819050919050565b5f62000266620002606200025a8462000234565b6200023d565b62000234565b9050919050565b5f819050919050565b620002818362000246565b6200029962000290826200026d565b848454620001df565b825550505050565b5f90565b620002af620002a1565b620002bc81848462000276565b505050565b5b81811015620002e357620002d75f82620002a5565b600181019050620002c2565b5050565b601f8211156200033257620002fc81620001b2565b6200030784620001c4565b8101602085101562000317578190505b6200032f6200032685620001c4565b830182620002c1565b50505b505050565b5f82821c905092915050565b5f620003545f198460080262000337565b1980831691505092915050565b5f6200036e838362000343565b9150826002028217905092915050565b62000389826200011a565b67ffffffffffffffff811115620003a557620003a462000124565b5b620003b182546200017e565b620003be828285620002e7565b5f60209050601f831160018114620003f4575f8415620003df578287015190505b620003eb858262000361565b8655506200045a565b601f1984166200040486620001b2565b5f5b828110156200042d5784890151825560018201915060208501945060208101905062000406565b868310156200044d578489015162000449601f89168262000343565b8355505b6001600288020188555050505b505050505050565b5f819050815f5260205f209050919050565b601f821115620004bf57620004898162000462565b6200049484620001c4565b81016020851015620004a4578190505b620004bc620004b385620001c4565b830182620002c1565b50505b505050565b620004cf826200011a565b67ffffffffffffffff811115620004eb57620004ea62000124565b5b620004f782546200017e565b6200050482828562000474565b5f60209050601f8311600181146200053a575f841562000525578287015190505b62000531858262000361565b865550620005a0565b601f1984166200054a8662000462565b5f5b8281101562000573578489015182556001820191506020850194506020810190506200054c565b868310156200059357848901516200058f601f89168262000343565b8355505b6001600288020188555050505b505050505050565b610d5480620005b65f395ff3fe608060405234801561000f575f80fd5b50600436106100cd575f3560e01c806368322be71161008a5780639eeb368b116100645780639eeb368b146101ee578063b23253451461020a578063cb297fc51461023b578063e1d16b8314610259576100cd565b806368322be714610181578063988817b01461019f5780639dba07e9146101bd576100cd565b80630c4dae88146100d15780630e11a238146100ef5780632e64cec11461010b5780634f2be91f146101295780635a286ac0146101475780636057361d14610165575b5f80fd5b6100d9610277565b6040516100e6919061061d565b60405180910390f35b610109600480360381019061010491906107b6565b61027d565b005b6101136102d4565b604051610120919061081f565b60405180910390f35b6101316102dd565b60405161013e919061081f565b60405180910390f35b61014f6102e5565b60405161015c91906108b2565b60405180910390f35b61017f600480360381019061017a91906108d2565b610371565b005b61018961037b565b604051610196919061094f565b60405180910390f35b6101a7610407565b6040516101b4919061081f565b60405180910390f35b6101d760048036038101906101d291906108d2565b61040d565b6040516101e592919061096f565b60405180910390f35b610208600480360381019061020391906107b6565b6104c2565b005b610224600480360381019061021f91906108d2565b610523565b60405161023292919061096f565b60405180910390f35b6102436105d0565b60405161025091906109b7565b60405180910390f35b6102616105e0565b60405161026e9190610a0f565b60405180910390f35b60025481565b5f60405180604001604052808481526020018381525090508060075f600381106102aa576102a9610a28565b5b600202015f820151815f015560208201518160010190816102cb9190610c4f565b50905050505050565b5f600154905090565b5f6002905090565b600480546102f290610a82565b80601f016020809104026020016040519081016040528092919081815260200182805461031e90610a82565b80156103695780601f1061034057610100808354040283529160200191610369565b820191905f5260205f20905b81548152906001019060200180831161034c57829003601f168201915b505050505081565b8060018190555050565b6005805461038890610a82565b80601f01602080910402602001604051908101604052809291908181526020018280546103b490610a82565b80156103ff5780601f106103d6576101008083540402835291602001916103ff565b820191905f5260205f20905b8154815290600101906020018083116103e257829003601f168201915b505050505081565b60015481565b6006818154811061041c575f80fd5b905f5260205f2090600202015f91509050805f01549080600101805461044190610a82565b80601f016020809104026020016040519081016040528092919081815260200182805461046d90610a82565b80156104b85780601f1061048f576101008083540402835291602001916104b8565b820191905f5260205f20905b81548152906001019060200180831161049b57829003601f168201915b5050505050905082565b6006604051806040016040528084815260200183815250908060018154018082558091505060019003905f5260205f2090600202015f909190919091505f820151815f0155602082015181600101908161051c9190610c4f565b5050505050565b60078160038110610532575f80fd5b600202015f91509050805f01549080600101805461054f90610a82565b80601f016020809104026020016040519081016040528092919081815260200182805461057b90610a82565b80156105c65780601f1061059d576101008083540402835291602001916105c6565b820191905f5260205f20905b8154815290600101906020018083116105a957829003601f168201915b5050505050905082565b5f8054906101000a900460ff1681565b60035f9054906101000a900473ffffffffffffffffffffffffffffffffffffffff1681565b5f819050919050565b61061781610605565b82525050565b5f6020820190506106305f83018461060e565b92915050565b5f604051905090565b5f80fd5b5f80fd5b5f819050919050565b61065981610647565b8114610663575f80fd5b50565b5f8135905061067481610650565b92915050565b5f80fd5b5f80fd5b5f601f19601f8301169050919050565b7f4e487b71000000000000000000000000000000000000000000000000000000005f52604160045260245ffd5b6106c882610682565b810181811067ffffffffffffffff821117156106e7576106e6610692565b5b80604052505050565b5f6106f9610636565b905061070582826106bf565b919050565b5f67ffffffffffffffff82111561072457610723610692565b5b61072d82610682565b9050602081019050919050565b828183375f83830152505050565b5f61075a6107558461070a565b6106f0565b9050828152602081018484840111156107765761077561067e565b5b61078184828561073a565b509392505050565b5f82601f83011261079d5761079c61067a565b5b81356107ad848260208601610748565b91505092915050565b5f80604083850312156107cc576107cb61063f565b5b5f6107d985828601610666565b925050602083013567ffffffffffffffff8111156107fa576107f9610643565b5b61080685828601610789565b9150509250929050565b61081981610647565b82525050565b5f6020820190506108325f830184610810565b92915050565b5f81519050919050565b5f82825260208201905092915050565b5f5b8381101561086f578082015181840152602081019050610854565b5f8484015250505050565b5f61088482610838565b61088e8185610842565b935061089e818560208601610852565b6108a781610682565b840191505092915050565b5f6020820190508181035f8301526108ca818461087a565b905092915050565b5f602082840312156108e7576108e661063f565b5b5f6108f484828501610666565b91505092915050565b5f81519050919050565b5f82825260208201905092915050565b5f610921826108fd565b61092b8185610907565b935061093b818560208601610852565b61094481610682565b840191505092915050565b5f6020820190508181035f8301526109678184610917565b905092915050565b5f6040820190506109825f830185610810565b81810360208301526109948184610917565b90509392505050565b5f8115159050919050565b6109b18161099d565b82525050565b5f6020820190506109ca5f8301846109a8565b92915050565b5f73ffffffffffffffffffffffffffffffffffffffff82169050919050565b5f6109f9826109d0565b9050919050565b610a09816109ef565b82525050565b5f602082019050610a225f830184610a00565b92915050565b7f4e487b71000000000000000000000000000000000000000000000000000000005f52603260045260245ffd5b7f4e487b71000000000000000000000000000000000000000000000000000000005f52602260045260245ffd5b5f6002820490506001821680610a9957607f821691505b602082108103610aac57610aab610a55565b5b50919050565b5f819050815f5260205f209050919050565b5f6020601f8301049050919050565b5f82821b905092915050565b5f60088302610b0e7fffffffffffffffffffffffffffffffffffffffffffffffffffffffffffffffff82610ad3565b610b188683610ad3565b95508019841693508086168417925050509392505050565b5f819050919050565b5f610b53610b4e610b4984610647565b610b30565b610647565b9050919050565b5f819050919050565b610b6c83610b39565b610b80610b7882610b5a565b848454610adf565b825550505050565b5f90565b610b94610b88565b610b9f818484610b63565b505050565b5b81811015610bc257610bb75f82610b8c565b600181019050610ba5565b5050565b601f821115610c0757610bd881610ab2565b610be184610ac4565b81016020851015610bf0578190505b610c04610bfc85610ac4565b830182610ba4565b50505b505050565b5f82821c905092915050565b5f610c275f1984600802610c0c565b1980831691505092915050565b5f610c3f8383610c18565b9150826002028217905092915050565b610c58826108fd565b67ffffffffffffffff811115610c7157610c70610692565b5b610c7b8254610a82565b610c86828285610bc6565b5f60209050601f831160018114610cb7575f8415610ca5578287015190505b610caf8582610c34565b865550610d16565b601f198416610cc586610ab2565b5f5b82811015610cec57848901518255600182019150602085019450602081019050610cc7565b86831015610d095784890151610d05601f891682610c18565b8355505b6001600288020188555050505b50505050505056fea2646970667358221220c93a21e27e43f02e5ca588b393d59eb0368036159d9e53966ab882fe4a323df164736f6c6343000815003331323334353637383930203132333435363738393020313233343536373839302031323334353637383930",
  "immutableReferences": {},
  "source": "// SPDX-License-Identifier: MIT \r\npragma solidity ^0.8.8;\r\n\r\ncontract SimpleStorage {\r\n  // base type\r\n  /**\r\n   * boolean\r\n   * uint\r\n   * int\r\n   * address\r\n   * bytes\r\n   * string\r\n   */\r\n\r\n  // boolean\r\n  // true / false\r\n  bool public booleanValue = true;\r\n  // uint \r\n  // uint8 ~ uint256 uint256\r\n  uint public uintValue;\r\n  // int  int256\r\n  // int8 ~ int256\r\n  int public intValue = -123;\r\n  // address \r\n  address public addressValue = 0x5B38Da6a701c568545dCfcB03FcB875f56beddC4;\r\n  // bytes \r\n  // bytes1 ~ bytes32\r\n  bytes public bytesValue = \"1234567890 1234567890 1234567890 1234567890\";\r\n  // string \r\n  string public strValue = \"Five\";\r\n\r\n    // \r\n    struct People {\r\n        uint256 favoriteNumber;\r\n        string name;\r\n    }\r\n    // person\r\n    //    People public person = People({\r\n    //        favoriteNumber:1,\r\n    //        name:\"Alex\"\r\n    //    });\r\n    // arrayperson\r\n    // 1.()\r\n    People[] public persons1;\r\n    // 2.()\r\n    People[3] public persons2;\r\n\r\n  /**\r\n   * \r\n   * public:  getter \r\n   * private: \r\n   * internal: \r\n   * external: \r\n   */\r\n   function store(uint256 _uintValue) public {\r\n       uintValue = _uintValue;\r\n   }\r\n    // 0x05Ca2e3350f83aCE022F93E28d11823D16d6638F6cF99b256A661866Aec6D63B\r\n    // :view functiongas,.\r\n    function retrieve() public view returns(uint256) {\r\n        return uintValue;\r\n        // ,gas(gas)\r\n    }\r\n    // :pure functino gas,.\r\n    // \r\n    function add() public pure returns(uint256) {\r\n        return(1+1);     \r\n    }\r\n    // gasstategas\r\n\r\n    // memory\"\",\r\n    // 1.memory,,\r\n    // 2.storage,(storage)\r\n    // 3.calldata,,(),.\r\n    function addPerson1 (uint256 _favoriteNumber,string memory _name) public {\r\n        persons1.push(People(_favoriteNumber,_name));\r\n    }\r\n\r\n    function addPerson2 (uint256 _favoriteNumber,string memory _name) public {\r\n        // push\r\n        // persons2.push(People(_favoriteNumber,_name));\r\n        People memory newPerson = People(_favoriteNumber,_name);\r\n        persons2[0] = newPerson;\r\n    }\r\n}",
  "sourcePath": "c:\\Users\\Sears\\Desktop\\blockchain_learn\\truffle-example\\contracts\\SimpleStorage.sol",
  "compiler": {
    "name": "solc",
    "version": "0.8.21+commit.d9974bed.Emscripten.clang"
  },
  "schemaVersion": "3.4.15",
  "updatedAt": "2023-09-10T06:14:33.040Z",
  "devdoc": {
    "kind": "dev",
    "methods": {},
    "version": 1
  },
  "userdoc": {
    "kind": "user",
    "methods": {
      "booleanValue()": {
        "notice": "boolean uint int address bytes string"
      },
      "store(uint256)": {
        "notice": " public:  getter  private:  internal:  external: "
      }
    },
    "version": 1
  }
}