{
  "contractName": "SimpleStorage2",
  "abi": [
    {
      "inputs": [
        {
          "internalType": "address",
          "name": "",
          "type": "address"
        }
      ],
      "name": "balances",
      "outputs": [
        {
          "internalType": "uint256",
          "name": "",
          "type": "uint256"
        }
      ],
      "stateMutability": "view",
      "type": "function"
    },
    {
      "inputs": [
        {
          "internalType": "address",
          "name": "_address",
          "type": "address"
        }
      ],
      "name": "getBalances",
      "outputs": [
        {
          "internalType": "uint256",
          "name": "",
          "type": "uint256"
        }
      ],
      "stateMutability": "view",
      "type": "function"
    },
    {
      "inputs": [
        {
          "internalType": "address",
          "name": "_address",
          "type": "address"
        },
        {
          "internalType": "uint256",
          "name": "_balances",
          "type": "uint256"
        }
      ],
      "name": "addAddress",
      "outputs": [],
      "stateMutability": "nonpayable",
      "type": "function"
    }
  ],
  "bytecode": "0x608060405234801561000f575f80fd5b506102b58061001d5f395ff3fe608060405234801561000f575f80fd5b506004361061003f575f3560e01c806327e235e31461004357806363c0565014610073578063c84aae171461008f575b5f80fd5b61005d600480360381019061005891906101bb565b6100bf565b60405161006a91906101fe565b60405180910390f35b61008d60048036038101906100889190610241565b6100d3565b005b6100a960048036038101906100a491906101bb565b610118565b6040516100b691906101fe565b60405180910390f35b5f602052805f5260405f205f915090505481565b805f808473ffffffffffffffffffffffffffffffffffffffff1673ffffffffffffffffffffffffffffffffffffffff1681526020019081526020015f20819055505050565b5f805f8373ffffffffffffffffffffffffffffffffffffffff1673ffffffffffffffffffffffffffffffffffffffff1681526020019081526020015f20549050919050565b5f80fd5b5f73ffffffffffffffffffffffffffffffffffffffff82169050919050565b5f61018a82610161565b9050919050565b61019a81610180565b81146101a4575f80fd5b50565b5f813590506101b581610191565b92915050565b5f602082840312156101d0576101cf61015d565b5b5f6101dd848285016101a7565b91505092915050565b5f819050919050565b6101f8816101e6565b82525050565b5f6020820190506102115f8301846101ef565b92915050565b610220816101e6565b811461022a575f80fd5b50565b5f8135905061023b81610217565b92915050565b5f80604083850312156102575761025661015d565b5b5f610264858286016101a7565b92505060206102758582860161022d565b915050925092905056fea264697066735822122050633ad64c069d54d75d769be653ebe9b2ea6fbe0dff9222288d6377227c881664736f6c63430008150033",
  "immutableReferences": {},
  "source": "// SPDX-License-Identifier: MIT \r\npragma solidity ^0.8.8;\r\n\r\ncontract SimpleStorage2 {\r\n    // mapping,\r\n    // addresskey,uintvalue\r\n    mapping(address => uint256) public balances;\r\n\r\n    function getBalances(address _address) view public returns(uint256) {\r\n        return balances[_address];        \r\n    }\r\n\r\n    function addAddress (address _address,uint256 _balances) public {\r\n        balances[_address] = _balances;\r\n    }\r\n\r\n    // :\r\n    /* \r\n     * 1.\r\n     *  mappingbooluintintaddressbytes\r\n     *  \r\n     * 2.\r\n     *  mappingmapping\r\n     * 3.\r\n     *  mapping\r\n     * 4.\r\n     *  mapping\r\n     * 5.\r\n     *  mappingmapping\r\n    */\r\n}",
  "sourcePath": "c:\\Users\\Sears\\Desktop\\blockchain_learn\\truffle-example\\contracts\\SimpleStorage2.sol",
  "compiler": {
    "name": "solc",
    "version": "0.8.21+commit.d9974bed.Emscripten.clang"
  },
  "schemaVersion": "3.4.15",
  "updatedAt": "2023-09-10T06:14:33.047Z",
  "devdoc": {
    "kind": "dev",
    "methods": {},
    "version": 1
  },
  "userdoc": {
    "kind": "user",
    "methods": {},
    "version": 1
  }
}