{
  "contractName": "SimpleStorage2",
  "abi": [
    {
      "inputs": [
        {
          "internalType": "address",
          "name": "",
          "type": "address"
        }
      ],
      "name": "balances",
      "outputs": [
        {
          "internalType": "uint256",
          "name": "",
          "type": "uint256"
        }
      ],
      "stateMutability": "view",
      "type": "function"
    },
    {
      "inputs": [
        {
          "internalType": "address",
          "name": "_address",
          "type": "address"
        }
      ],
      "name": "getBalances",
      "outputs": [
        {
          "internalType": "uint256",
          "name": "",
          "type": "uint256"
        }
      ],
      "stateMutability": "view",
      "type": "function"
    },
    {
      "inputs": [
        {
          "internalType": "address",
          "name": "_address",
          "type": "address"
        },
        {
          "internalType": "uint256",
          "name": "_balances",
          "type": "uint256"
        }
      ],
      "name": "addAddress",
      "outputs": [],
      "stateMutability": "nonpayable",
      "type": "function"
    },
    {
      "inputs": [
        {
          "internalType": "address",
          "name": "_addr",
          "type": "address"
        }
      ],
      "name": "removeAddress",
      "outputs": [],
      "stateMutability": "nonpayable",
      "type": "function"
    }
  ],
  "bytecode": "0x608060405234801561000f575f80fd5b5061031e8061001d5f395ff3fe608060405234801561000f575f80fd5b506004361061004a575f3560e01c806327e235e31461004e5780634ba79dfe1461007e57806363c056501461009a578063c84aae17146100b6575b5f80fd5b61006860048036038101906100639190610224565b6100e6565b6040516100759190610267565b60405180910390f35b61009860048036038101906100939190610224565b6100fa565b005b6100b460048036038101906100af91906102aa565b61013c565b005b6100d060048036038101906100cb9190610224565b610181565b6040516100dd9190610267565b60405180910390f35b5f602052805f5260405f205f915090505481565b5f808273ffffffffffffffffffffffffffffffffffffffff1673ffffffffffffffffffffffffffffffffffffffff1681526020019081526020015f205f905550565b805f808473ffffffffffffffffffffffffffffffffffffffff1673ffffffffffffffffffffffffffffffffffffffff1681526020019081526020015f20819055505050565b5f805f8373ffffffffffffffffffffffffffffffffffffffff1673ffffffffffffffffffffffffffffffffffffffff1681526020019081526020015f20549050919050565b5f80fd5b5f73ffffffffffffffffffffffffffffffffffffffff82169050919050565b5f6101f3826101ca565b9050919050565b610203816101e9565b811461020d575f80fd5b50565b5f8135905061021e816101fa565b92915050565b5f60208284031215610239576102386101c6565b5b5f61024684828501610210565b91505092915050565b5f819050919050565b6102618161024f565b82525050565b5f60208201905061027a5f830184610258565b92915050565b6102898161024f565b8114610293575f80fd5b50565b5f813590506102a481610280565b92915050565b5f80604083850312156102c0576102bf6101c6565b5b5f6102cd85828601610210565b92505060206102de85828601610296565b915050925092905056fea26469706673582212201935e1c62348b1b46a6e06507bf8673e271dcc9a69266de259d8f5b2c10cec6f64736f6c63430008140033",
  "immutableReferences": {},
  "source": "// SPDX-License-Identifier: MIT \r\npragma solidity ^0.8.20;\r\n\r\ncontract SimpleStorage2 {\r\n    // mapping,\r\n    // addresskey,uintvalue\r\n    mapping(address => uint256) public balances;\r\n\r\n    function getBalances(address _address) view public returns(uint256) {\r\n        return balances[_address];        \r\n    }\r\n\r\n    function addAddress (address _address,uint256 _balances) public {\r\n        balances[_address] = _balances;\r\n    }\r\n\r\n    function removeAddress (address _addr) public {\r\n        delete balances[_addr];\r\n    }\r\n\r\n    // :\r\n    /* \r\n     * 1.\r\n     *  mappingbooluintintaddressbytes\r\n     *  \r\n     * 2.\r\n     *  mappingmapping\r\n     * 3.\r\n     *  mapping\r\n     * 4.\r\n     *  mapping\r\n     * 5.\r\n     *  mappingmapping\r\n    */\r\n}\r\n\r\ncontract NestedMapping {\r\n    // mapping\r\n    mapping(address => mapping(uint => bool)) public nestedMapping;\r\n\r\n    function get(address _addr,uint i) public view returns(bool) {\r\n        // mapping value\r\n        return nestedMapping[_addr][i];\r\n    }\r\n\r\n    function set(address _addr,uint i,bool _bool) public {\r\n        nestedMapping[_addr][i] = _bool;\r\n    }\r\n\r\n    function remove(address _addr,uint i) public {\r\n        delete nestedMapping[_addr][i];\r\n    }\r\n}",
  "sourcePath": "C:\\Users\\Sears\\Desktop\\blockchain_learn\\truffle-example\\contracts\\9_Mapping.sol",
  "compiler": {
    "name": "solc",
    "version": "0.8.20+commit.a1b79de6.Emscripten.clang"
  },
  "schemaVersion": "3.4.15",
  "updatedAt": "2023-11-26T08:09:23.401Z",
  "devdoc": {
    "kind": "dev",
    "methods": {},
    "version": 1
  },
  "userdoc": {
    "kind": "user",
    "methods": {},
    "version": 1
  }
}