{
  "contractName": "Todos",
  "abi": [
    {
      "inputs": [
        {
          "internalType": "uint256",
          "name": "",
          "type": "uint256"
        }
      ],
      "name": "todos",
      "outputs": [
        {
          "internalType": "string",
          "name": "text",
          "type": "string"
        },
        {
          "internalType": "bool",
          "name": "completed",
          "type": "bool"
        }
      ],
      "stateMutability": "view",
      "type": "function"
    },
    {
      "inputs": [
        {
          "internalType": "string",
          "name": "_text",
          "type": "string"
        }
      ],
      "name": "create",
      "outputs": [],
      "stateMutability": "nonpayable",
      "type": "function"
    },
    {
      "inputs": [
        {
          "internalType": "uint256",
          "name": "_index",
          "type": "uint256"
        }
      ],
      "name": "get",
      "outputs": [
        {
          "internalType": "string",
          "name": "text",
          "type": "string"
        },
        {
          "internalType": "bool",
          "name": "completed",
          "type": "bool"
        }
      ],
      "stateMutability": "view",
      "type": "function"
    },
    {
      "inputs": [
        {
          "internalType": "uint256",
          "name": "_index",
          "type": "uint256"
        },
        {
          "internalType": "string",
          "name": "newText",
          "type": "string"
        }
      ],
      "name": "updateText",
      "outputs": [],
      "stateMutability": "nonpayable",
      "type": "function"
    },
    {
      "inputs": [
        {
          "internalType": "uint256",
          "name": "_index",
          "type": "uint256"
        }
      ],
      "name": "toggleCompleted",
      "outputs": [],
      "stateMutability": "nonpayable",
      "type": "function"
    }
  ],
  "bytecode": "0x608060405234801561000f575f80fd5b50610bd68061001d5f395ff3fe608060405234801561000f575f80fd5b5060043610610055575f3560e01c8063455f5024146100595780639507d39a14610075578063b6a46b3b146100a6578063bc8bc2b4146100c2578063cd111614146100f3575b5f80fd5b610073600480360381019061006e91906105a0565b61010f565b005b61008f600480360381019061008a91906105a0565b610161565b60405161009d92919061066f565b60405180910390f35b6100c060048036038101906100bb91906106fe565b61022e565b005b6100dc60048036038101906100d791906105a0565b61044f565b6040516100ea92919061066f565b60405180910390f35b61010d60048036038101906101089190610749565b61050f565b005b5f808281548110610123576101226107a6565b5b905f5260205f2090600202019050806001015f9054906101000a900460ff1615816001015f6101000a81548160ff0219169083151502179055505050565b60605f805f8481548110610178576101776107a6565b5b905f5260205f2090600202019050805f01816001015f9054906101000a900460ff168180546101a690610800565b80601f01602080910402602001604051908101604052809291908181526020018280546101d290610800565b801561021d5780601f106101f45761010080835404028352916020019161021d565b820191905f5260205f20905b81548152906001019060200180831161020057829003601f168201915b505050505091509250925050915091565b5f604051806040016040528084848080601f0160208091040260200160405190810160405280939291908181526020018383808284375f81840152601f19601f8201169050808301925050505050505081526020015f1515815250908060018154018082558091505060019003905f5260205f2090600202015f909190919091505f820151815f0190816102c291906109fa565b506020820151816001015f6101000a81548160ff02191690831515021790555050505f604051806040016040528084848080601f0160208091040260200160405190810160405280939291908181526020018383808284375f81840152601f19601f8201169050808301925050505050505081526020015f1515815250908060018154018082558091505060019003905f5260205f2090600202015f909190919091505f820151815f01908161037891906109fa565b506020820151816001015f6101000a81548160ff02191690831515021790555050506103a261054a565b82828080601f0160208091040260200160405190810160405280939291908181526020018383808284375f81840152601f19601f82011690508083019250505050505050815f01819052505f81908060018154018082558091505060019003905f5260205f2090600202015f909190919091505f820151815f01908161042891906109fa565b506020820151816001015f6101000a81548160ff0219169083151502179055505050505050565b5f818154811061045d575f80fd5b905f5260205f2090600202015f91509050805f01805461047c90610800565b80601f01602080910402602001604051908101604052809291908181526020018280546104a890610800565b80156104f35780601f106104ca576101008083540402835291602001916104f3565b820191905f5260205f20905b8154815290600101906020018083116104d657829003601f168201915b505050505090806001015f9054906101000a900460ff16905082565b5f808481548110610523576105226107a6565b5b905f5260205f20906002020190508282825f019182610543929190610ad3565b5050505050565b6040518060400160405280606081526020015f151581525090565b5f80fd5b5f80fd5b5f819050919050565b61057f8161056d565b8114610589575f80fd5b50565b5f8135905061059a81610576565b92915050565b5f602082840312156105b5576105b4610565565b5b5f6105c28482850161058c565b91505092915050565b5f81519050919050565b5f82825260208201905092915050565b5f5b838110156106025780820151818401526020810190506105e7565b5f8484015250505050565b5f601f19601f8301169050919050565b5f610627826105cb565b61063181856105d5565b93506106418185602086016105e5565b61064a8161060d565b840191505092915050565b5f8115159050919050565b61066981610655565b82525050565b5f6040820190508181035f830152610687818561061d565b90506106966020830184610660565b9392505050565b5f80fd5b5f80fd5b5f80fd5b5f8083601f8401126106be576106bd61069d565b5b8235905067ffffffffffffffff8111156106db576106da6106a1565b5b6020830191508360018202830111156106f7576106f66106a5565b5b9250929050565b5f806020838503121561071457610713610565565b5b5f83013567ffffffffffffffff81111561073157610730610569565b5b61073d858286016106a9565b92509250509250929050565b5f805f604084860312156107605761075f610565565b5b5f61076d8682870161058c565b935050602084013567ffffffffffffffff81111561078e5761078d610569565b5b61079a868287016106a9565b92509250509250925092565b7f4e487b71000000000000000000000000000000000000000000000000000000005f52603260045260245ffd5b7f4e487b71000000000000000000000000000000000000000000000000000000005f52602260045260245ffd5b5f600282049050600182168061081757607f821691505b60208210810361082a576108296107d3565b5b50919050565b7f4e487b71000000000000000000000000000000000000000000000000000000005f52604160045260245ffd5b5f819050815f5260205f209050919050565b5f6020601f8301049050919050565b5f82821b905092915050565b5f600883026108b97fffffffffffffffffffffffffffffffffffffffffffffffffffffffffffffffff8261087e565b6108c3868361087e565b95508019841693508086168417925050509392505050565b5f819050919050565b5f6108fe6108f96108f48461056d565b6108db565b61056d565b9050919050565b5f819050919050565b610917836108e4565b61092b61092382610905565b84845461088a565b825550505050565b5f90565b61093f610933565b61094a81848461090e565b505050565b5b8181101561096d576109625f82610937565b600181019050610950565b5050565b601f8211156109b2576109838161085d565b61098c8461086f565b8101602085101561099b578190505b6109af6109a78561086f565b83018261094f565b50505b505050565b5f82821c905092915050565b5f6109d25f19846008026109b7565b1980831691505092915050565b5f6109ea83836109c3565b9150826002028217905092915050565b610a03826105cb565b67ffffffffffffffff811115610a1c57610a1b610830565b5b610a268254610800565b610a31828285610971565b5f60209050601f831160018114610a62575f8415610a50578287015190505b610a5a85826109df565b865550610ac1565b601f198416610a708661085d565b5f5b82811015610a9757848901518255600182019150602085019450602081019050610a72565b86831015610ab45784890151610ab0601f8916826109c3565b8355505b6001600288020188555050505b505050505050565b5f82905092915050565b610add8383610ac9565b67ffffffffffffffff811115610af657610af5610830565b5b610b008254610800565b610b0b828285610971565b5f601f831160018114610b38575f8415610b26578287013590505b610b3085826109df565b865550610b97565b601f198416610b468661085d565b5f5b82811015610b6d57848901358255600182019150602085019450602081019050610b48565b86831015610b8a5784890135610b86601f8916826109c3565b8355505b6001600288020188555050505b5050505050505056fea2646970667358221220b400b5078bfd12320d2fdc43e4d11a2b66c04df8efbaecbee825ef616c6055ca64736f6c63430008140033",
  "immutableReferences": {},
  "source": "// SPDX-License-Identifier: MIT\r\n\r\n/**\r\n   struct .\r\n  \r\n  \r\n */\r\n\r\ncontract Todos {\r\n  struct Todo {\r\n    string text;\r\n    bool completed;\r\n  }\r\n\r\n  Todo[] public todos;\r\n\r\n  function create(string calldata _text) public {\r\n    // push\r\n    todos.push(Todo(_text,false));\r\n    // push\r\n    todos.push(Todo({\r\n      text:_text,\r\n      completed:false\r\n    }));\r\n    \r\n    // pushmemorypush\r\n    // memory,\r\n    Todo memory todo;\r\n    todo.text = _text;\r\n    // completedfalse\r\n    todos.push(todo);    \r\n  }\r\n\r\n  function get(uint _index) public view returns(string memory text,bool completed) {\r\n    Todo storage todo = todos[_index];\r\n    return (todo.text,todo.completed);\r\n  }\r\n\r\n  function updateText(uint _index,string calldata newText) public {\r\n    Todo storage todo = todos[_index];\r\n    todo.text = newText;\r\n  }\r\n\r\n  function toggleCompleted(uint _index) public {\r\n    Todo storage todo = todos[_index];\r\n    todo.completed = !todo.completed;\r\n  }\r\n\r\n  /**\r\n   * solTodo  \r\n   */\r\n  /**\r\n   * \r\n   * // SPDX-License-Identifier: MIT\r\n      pragma solidity ^0.8.20;\r\n\r\n      import \"./StructDeclaration.sol\";\r\n\r\n      contract Todos {\r\n          // An array of 'Todo' structs\r\n          Todo[] public todos;\r\n      }\r\n   */\r\n\r\n}",
  "sourcePath": "C:\\Users\\Sears\\Desktop\\blockchain_learn\\truffle-example\\contracts\\12_Structs.sol",
  "compiler": {
    "name": "solc",
    "version": "0.8.20+commit.a1b79de6.Emscripten.clang"
  },
  "schemaVersion": "3.4.15",
  "updatedAt": "2023-11-25T14:50:35.765Z",
  "devdoc": {
    "kind": "dev",
    "methods": {},
    "version": 1
  },
  "userdoc": {
    "kind": "user",
    "methods": {},
    "notice": " struct .  ",
    "version": 1
  }
}