{
  "contractName": "VariablesType",
  "abi": [
    {
      "inputs": [],
      "name": "num",
      "outputs": [
        {
          "internalType": "uint256",
          "name": "",
          "type": "uint256"
        }
      ],
      "stateMutability": "view",
      "type": "function"
    },
    {
      "inputs": [],
      "name": "text",
      "outputs": [
        {
          "internalType": "string",
          "name": "",
          "type": "string"
        }
      ],
      "stateMutability": "view",
      "type": "function"
    },
    {
      "inputs": [],
      "name": "doSomething",
      "outputs": [],
      "stateMutability": "view",
      "type": "function"
    }
  ],
  "bytecode": "0x60806040526040518060400160405280600b81526020017f68656c6c6f20776f726c640000000000000000000000000000000000000000008152505f90816100479190610297565b5060018055348015610057575f80fd5b50610366565b5f81519050919050565b7f4e487b71000000000000000000000000000000000000000000000000000000005f52604160045260245ffd5b7f4e487b71000000000000000000000000000000000000000000000000000000005f52602260045260245ffd5b5f60028204905060018216806100d857607f821691505b6020821081036100eb576100ea610094565b5b50919050565b5f819050815f5260205f209050919050565b5f6020601f8301049050919050565b5f82821b905092915050565b5f6008830261014d7fffffffffffffffffffffffffffffffffffffffffffffffffffffffffffffffff82610112565b6101578683610112565b95508019841693508086168417925050509392505050565b5f819050919050565b5f819050919050565b5f61019b6101966101918461016f565b610178565b61016f565b9050919050565b5f819050919050565b6101b483610181565b6101c86101c0826101a2565b84845461011e565b825550505050565b5f90565b6101dc6101d0565b6101e78184846101ab565b505050565b5b8181101561020a576101ff5f826101d4565b6001810190506101ed565b5050565b601f82111561024f57610220816100f1565b61022984610103565b81016020851015610238578190505b61024c61024485610103565b8301826101ec565b50505b505050565b5f82821c905092915050565b5f61026f5f1984600802610254565b1980831691505092915050565b5f6102878383610260565b9150826002028217905092915050565b6102a08261005d565b67ffffffffffffffff8111156102b9576102b8610067565b5b6102c382546100c1565b6102ce82828561020e565b5f60209050601f8311600181146102ff575f84156102ed578287015190505b6102f7858261027c565b86555061035e565b601f19841661030d866100f1565b5f5b828110156103345784890151825560018201915060208501945060208101905061030f565b86831015610351578489015161034d601f891682610260565b8355505b6001600288020188555050505b505050505050565b6102ce806103735f395ff3fe608060405234801561000f575f80fd5b506004361061003f575f3560e01c80631f1bd692146100435780634e70b1dc14610061578063826926791461007f575b5f80fd5b61004b610089565b60405161005891906101ea565b60405180910390f35b610069610114565b6040516100769190610222565b60405180910390f35b61008761011a565b005b5f805461009590610268565b80601f01602080910402602001604051908101604052809291908181526020018280546100c190610268565b801561010c5780601f106100e35761010080835404028352916020019161010c565b820191905f5260205f20905b8154815290600101906020018083116100ef57829003601f168201915b505050505081565b60015481565b5f6040518060400160405280600b81526020017f68656c6c6f20776f726c6400000000000000000000000000000000000000000081525090505f4290505f339050505050565b5f81519050919050565b5f82825260208201905092915050565b5f5b8381101561019757808201518184015260208101905061017c565b5f8484015250505050565b5f601f19601f8301169050919050565b5f6101bc82610160565b6101c6818561016a565b93506101d681856020860161017a565b6101df816101a2565b840191505092915050565b5f6020820190508181035f83015261020281846101b2565b905092915050565b5f819050919050565b61021c8161020a565b82525050565b5f6020820190506102355f830184610213565b92915050565b7f4e487b71000000000000000000000000000000000000000000000000000000005f52602260045260245ffd5b5f600282049050600182168061027f57607f821691505b6020821081036102925761029161023b565b5b5091905056fea2646970667358221220b7d2334d2febc280492601c9734d9024a0990b6dab4744fbfbed993b024a5aec64736f6c63430008140033",
  "immutableReferences": {},
  "source": "// SPDX-License-Identifier: MIT \r\npragma solidity ^0.8.20;\r\n\r\n/**\r\n * \r\n *  1. local\r\n *    \r\n *  2. state\r\n *    \r\n *  3. global\r\n *    msg.senderblock.timestamp\r\n */\r\n\r\ncontract VariablesType {\r\n  // state\r\n  string public text = \"hello world\";\r\n  uint public num = 1;\r\n  \r\n  function doSomething() public view {\r\n    // local\r\n    string memory localText = \"hello world\";\r\n\r\n    // global\r\n    uint ts = block.timestamp;\r\n    address sender = msg.sender;\r\n  }\r\n}",
  "sourcePath": "C:\\Users\\Sears\\Desktop\\blockchain_learn\\truffle-example\\contracts\\2_VariablesType.sol",
  "compiler": {
    "name": "solc",
    "version": "0.8.20+commit.a1b79de6.Emscripten.clang"
  },
  "schemaVersion": "3.4.15",
  "updatedAt": "2023-11-26T08:09:23.387Z",
  "devdoc": {
    "kind": "dev",
    "methods": {},
    "version": 1
  },
  "userdoc": {
    "kind": "user",
    "methods": {},
    "notice": "  1. local      2. state      3. global    msg.senderblock.timestamp",
    "version": 1
  }
}